{
  "_format": "hh-sol-artifact-1",
  "contractName": "MyTimelockController",
  "sourceName": "contracts/filefind/Timelock_Controller.sol",
  "abi": [
    {
      "inputs": [
        {
          "internalType": "uint256",
          "name": "minDelay",
          "type": "uint256"
        },
        {
          "internalType": "address[]",
          "name": "proposers",
          "type": "address[]"
        },
        {
          "internalType": "address[]",
          "name": "executors",
          "type": "address[]"
        }
      ],
      "stateMutability": "nonpayable",
      "type": "constructor"
    },
    {
      "inputs": [],
      "name": "AccessControlBadConfirmation",
      "type": "error"
    },
    {
      "inputs": [
        {
          "internalType": "address",
          "name": "account",
          "type": "address"
        },
        {
          "internalType": "bytes32",
          "name": "neededRole",
          "type": "bytes32"
        }
      ],
      "name": "AccessControlUnauthorizedAccount",
      "type": "error"
    },
    {
      "inputs": [],
      "name": "FailedCall",
      "type": "error"
    },
    {
      "inputs": [
        {
          "internalType": "uint256",
          "name": "delay",
          "type": "uint256"
        },
        {
          "internalType": "uint256",
          "name": "minDelay",
          "type": "uint256"
        }
      ],
      "name": "TimelockInsufficientDelay",
      "type": "error"
    },
    {
      "inputs": [
        {
          "internalType": "uint256",
          "name": "targets",
          "type": "uint256"
        },
        {
          "internalType": "uint256",
          "name": "payloads",
          "type": "uint256"
        },
        {
          "internalType": "uint256",
          "name": "values",
          "type": "uint256"
        }
      ],
      "name": "TimelockInvalidOperationLength",
      "type": "error"
    },
    {
      "inputs": [
        {
          "internalType": "address",
          "name": "caller",
          "type": "address"
        }
      ],
      "name": "TimelockUnauthorizedCaller",
      "type": "error"
    },
    {
      "inputs": [
        {
          "internalType": "bytes32",
          "name": "predecessorId",
          "type": "bytes32"
        }
      ],
      "name": "TimelockUnexecutedPredecessor",
      "type": "error"
    },
    {
      "inputs": [
        {
          "internalType": "bytes32",
          "name": "operationId",
          "type": "bytes32"
        },
        {
          "internalType": "bytes32",
          "name": "expectedStates",
          "type": "bytes32"
        }
      ],
      "name": "TimelockUnexpectedOperationState",
      "type": "error"
    },
    {
      "anonymous": false,
      "inputs": [
        {
          "indexed": true,
          "internalType": "bytes32",
          "name": "id",
          "type": "bytes32"
        },
        {
          "indexed": true,
          "internalType": "uint256",
          "name": "index",
          "type": "uint256"
        },
        {
          "indexed": false,
          "internalType": "address",
          "name": "target",
          "type": "address"
        },
        {
          "indexed": false,
          "internalType": "uint256",
          "name": "value",
          "type": "uint256"
        },
        {
          "indexed": false,
          "internalType": "bytes",
          "name": "data",
          "type": "bytes"
        }
      ],
      "name": "CallExecuted",
      "type": "event"
    },
    {
      "anonymous": false,
      "inputs": [
        {
          "indexed": true,
          "internalType": "bytes32",
          "name": "id",
          "type": "bytes32"
        },
        {
          "indexed": false,
          "internalType": "bytes32",
          "name": "salt",
          "type": "bytes32"
        }
      ],
      "name": "CallSalt",
      "type": "event"
    },
    {
      "anonymous": false,
      "inputs": [
        {
          "indexed": true,
          "internalType": "bytes32",
          "name": "id",
          "type": "bytes32"
        },
        {
          "indexed": true,
          "internalType": "uint256",
          "name": "index",
          "type": "uint256"
        },
        {
          "indexed": false,
          "internalType": "address",
          "name": "target",
          "type": "address"
        },
        {
          "indexed": false,
          "internalType": "uint256",
          "name": "value",
          "type": "uint256"
        },
        {
          "indexed": false,
          "internalType": "bytes",
          "name": "data",
          "type": "bytes"
        },
        {
          "indexed": false,
          "internalType": "bytes32",
          "name": "predecessor",
          "type": "bytes32"
        },
        {
          "indexed": false,
          "internalType": "uint256",
          "name": "delay",
          "type": "uint256"
        }
      ],
      "name": "CallScheduled",
      "type": "event"
    },
    {
      "anonymous": false,
      "inputs": [
        {
          "indexed": true,
          "internalType": "bytes32",
          "name": "id",
          "type": "bytes32"
        }
      ],
      "name": "Cancelled",
      "type": "event"
    },
    {
      "anonymous": false,
      "inputs": [
        {
          "indexed": false,
          "internalType": "uint256",
          "name": "oldDuration",
          "type": "uint256"
        },
        {
          "indexed": false,
          "internalType": "uint256",
          "name": "newDuration",
          "type": "uint256"
        }
      ],
      "name": "MinDelayChange",
      "type": "event"
    },
    {
      "anonymous": false,
      "inputs": [
        {
          "indexed": true,
          "internalType": "bytes32",
          "name": "role",
          "type": "bytes32"
        },
        {
          "indexed": true,
          "internalType": "bytes32",
          "name": "previousAdminRole",
          "type": "bytes32"
        },
        {
          "indexed": true,
          "internalType": "bytes32",
          "name": "newAdminRole",
          "type": "bytes32"
        }
      ],
      "name": "RoleAdminChanged",
      "type": "event"
    },
    {
      "anonymous": false,
      "inputs": [
        {
          "indexed": true,
          "internalType": "bytes32",
          "name": "role",
          "type": "bytes32"
        },
        {
          "indexed": true,
          "internalType": "address",
          "name": "account",
          "type": "address"
        },
        {
          "indexed": true,
          "internalType": "address",
          "name": "sender",
          "type": "address"
        }
      ],
      "name": "RoleGranted",
      "type": "event"
    },
    {
      "anonymous": false,
      "inputs": [
        {
          "indexed": true,
          "internalType": "bytes32",
          "name": "role",
          "type": "bytes32"
        },
        {
          "indexed": true,
          "internalType": "address",
          "name": "account",
          "type": "address"
        },
        {
          "indexed": true,
          "internalType": "address",
          "name": "sender",
          "type": "address"
        }
      ],
      "name": "RoleRevoked",
      "type": "event"
    },
    {
      "inputs": [],
      "name": "CANCELLER_ROLE",
      "outputs": [
        {
          "internalType": "bytes32",
          "name": "",
          "type": "bytes32"
        }
      ],
      "stateMutability": "view",
      "type": "function"
    },
    {
      "inputs": [],
      "name": "DEFAULT_ADMIN_ROLE",
      "outputs": [
        {
          "internalType": "bytes32",
          "name": "",
          "type": "bytes32"
        }
      ],
      "stateMutability": "view",
      "type": "function"
    },
    {
      "inputs": [],
      "name": "EXECUTOR_ROLE",
      "outputs": [
        {
          "internalType": "bytes32",
          "name": "",
          "type": "bytes32"
        }
      ],
      "stateMutability": "view",
      "type": "function"
    },
    {
      "inputs": [],
      "name": "PROPOSER_ROLE",
      "outputs": [
        {
          "internalType": "bytes32",
          "name": "",
          "type": "bytes32"
        }
      ],
      "stateMutability": "view",
      "type": "function"
    },
    {
      "inputs": [
        {
          "internalType": "bytes32",
          "name": "id",
          "type": "bytes32"
        }
      ],
      "name": "cancel",
      "outputs": [],
      "stateMutability": "nonpayable",
      "type": "function"
    },
    {
      "inputs": [
        {
          "internalType": "address",
          "name": "target",
          "type": "address"
        },
        {
          "internalType": "uint256",
          "name": "value",
          "type": "uint256"
        },
        {
          "internalType": "bytes",
          "name": "payload",
          "type": "bytes"
        },
        {
          "internalType": "bytes32",
          "name": "predecessor",
          "type": "bytes32"
        },
        {
          "internalType": "bytes32",
          "name": "salt",
          "type": "bytes32"
        }
      ],
      "name": "execute",
      "outputs": [],
      "stateMutability": "payable",
      "type": "function"
    },
    {
      "inputs": [
        {
          "internalType": "address[]",
          "name": "targets",
          "type": "address[]"
        },
        {
          "internalType": "uint256[]",
          "name": "values",
          "type": "uint256[]"
        },
        {
          "internalType": "bytes[]",
          "name": "payloads",
          "type": "bytes[]"
        },
        {
          "internalType": "bytes32",
          "name": "predecessor",
          "type": "bytes32"
        },
        {
          "internalType": "bytes32",
          "name": "salt",
          "type": "bytes32"
        }
      ],
      "name": "executeBatch",
      "outputs": [],
      "stateMutability": "payable",
      "type": "function"
    },
    {
      "inputs": [],
      "name": "getMinDelay",
      "outputs": [
        {
          "internalType": "uint256",
          "name": "",
          "type": "uint256"
        }
      ],
      "stateMutability": "view",
      "type": "function"
    },
    {
      "inputs": [
        {
          "internalType": "bytes32",
          "name": "id",
          "type": "bytes32"
        }
      ],
      "name": "getOperationState",
      "outputs": [
        {
          "internalType": "enum TimelockController.OperationState",
          "name": "",
          "type": "uint8"
        }
      ],
      "stateMutability": "view",
      "type": "function"
    },
    {
      "inputs": [
        {
          "internalType": "bytes32",
          "name": "role",
          "type": "bytes32"
        }
      ],
      "name": "getRoleAdmin",
      "outputs": [
        {
          "internalType": "bytes32",
          "name": "",
          "type": "bytes32"
        }
      ],
      "stateMutability": "view",
      "type": "function"
    },
    {
      "inputs": [
        {
          "internalType": "bytes32",
          "name": "id",
          "type": "bytes32"
        }
      ],
      "name": "getTimestamp",
      "outputs": [
        {
          "internalType": "uint256",
          "name": "",
          "type": "uint256"
        }
      ],
      "stateMutability": "view",
      "type": "function"
    },
    {
      "inputs": [
        {
          "internalType": "bytes32",
          "name": "role",
          "type": "bytes32"
        },
        {
          "internalType": "address",
          "name": "account",
          "type": "address"
        }
      ],
      "name": "grantRole",
      "outputs": [],
      "stateMutability": "nonpayable",
      "type": "function"
    },
    {
      "inputs": [
        {
          "internalType": "bytes32",
          "name": "role",
          "type": "bytes32"
        },
        {
          "internalType": "address",
          "name": "account",
          "type": "address"
        }
      ],
      "name": "hasRole",
      "outputs": [
        {
          "internalType": "bool",
          "name": "",
          "type": "bool"
        }
      ],
      "stateMutability": "view",
      "type": "function"
    },
    {
      "inputs": [
        {
          "internalType": "address",
          "name": "target",
          "type": "address"
        },
        {
          "internalType": "uint256",
          "name": "value",
          "type": "uint256"
        },
        {
          "internalType": "bytes",
          "name": "data",
          "type": "bytes"
        },
        {
          "internalType": "bytes32",
          "name": "predecessor",
          "type": "bytes32"
        },
        {
          "internalType": "bytes32",
          "name": "salt",
          "type": "bytes32"
        }
      ],
      "name": "hashOperation",
      "outputs": [
        {
          "internalType": "bytes32",
          "name": "",
          "type": "bytes32"
        }
      ],
      "stateMutability": "pure",
      "type": "function"
    },
    {
      "inputs": [
        {
          "internalType": "address[]",
          "name": "targets",
          "type": "address[]"
        },
        {
          "internalType": "uint256[]",
          "name": "values",
          "type": "uint256[]"
        },
        {
          "internalType": "bytes[]",
          "name": "payloads",
          "type": "bytes[]"
        },
        {
          "internalType": "bytes32",
          "name": "predecessor",
          "type": "bytes32"
        },
        {
          "internalType": "bytes32",
          "name": "salt",
          "type": "bytes32"
        }
      ],
      "name": "hashOperationBatch",
      "outputs": [
        {
          "internalType": "bytes32",
          "name": "",
          "type": "bytes32"
        }
      ],
      "stateMutability": "pure",
      "type": "function"
    },
    {
      "inputs": [
        {
          "internalType": "bytes32",
          "name": "id",
          "type": "bytes32"
        }
      ],
      "name": "isOperation",
      "outputs": [
        {
          "internalType": "bool",
          "name": "",
          "type": "bool"
        }
      ],
      "stateMutability": "view",
      "type": "function"
    },
    {
      "inputs": [
        {
          "internalType": "bytes32",
          "name": "id",
          "type": "bytes32"
        }
      ],
      "name": "isOperationDone",
      "outputs": [
        {
          "internalType": "bool",
          "name": "",
          "type": "bool"
        }
      ],
      "stateMutability": "view",
      "type": "function"
    },
    {
      "inputs": [
        {
          "internalType": "bytes32",
          "name": "id",
          "type": "bytes32"
        }
      ],
      "name": "isOperationPending",
      "outputs": [
        {
          "internalType": "bool",
          "name": "",
          "type": "bool"
        }
      ],
      "stateMutability": "view",
      "type": "function"
    },
    {
      "inputs": [
        {
          "internalType": "bytes32",
          "name": "id",
          "type": "bytes32"
        }
      ],
      "name": "isOperationReady",
      "outputs": [
        {
          "internalType": "bool",
          "name": "",
          "type": "bool"
        }
      ],
      "stateMutability": "view",
      "type": "function"
    },
    {
      "inputs": [
        {
          "internalType": "address",
          "name": "",
          "type": "address"
        },
        {
          "internalType": "address",
          "name": "",
          "type": "address"
        },
        {
          "internalType": "uint256[]",
          "name": "",
          "type": "uint256[]"
        },
        {
          "internalType": "uint256[]",
          "name": "",
          "type": "uint256[]"
        },
        {
          "internalType": "bytes",
          "name": "",
          "type": "bytes"
        }
      ],
      "name": "onERC1155BatchReceived",
      "outputs": [
        {
          "internalType": "bytes4",
          "name": "",
          "type": "bytes4"
        }
      ],
      "stateMutability": "nonpayable",
      "type": "function"
    },
    {
      "inputs": [
        {
          "internalType": "address",
          "name": "",
          "type": "address"
        },
        {
          "internalType": "address",
          "name": "",
          "type": "address"
        },
        {
          "internalType": "uint256",
          "name": "",
          "type": "uint256"
        },
        {
          "internalType": "uint256",
          "name": "",
          "type": "uint256"
        },
        {
          "internalType": "bytes",
          "name": "",
          "type": "bytes"
        }
      ],
      "name": "onERC1155Received",
      "outputs": [
        {
          "internalType": "bytes4",
          "name": "",
          "type": "bytes4"
        }
      ],
      "stateMutability": "nonpayable",
      "type": "function"
    },
    {
      "inputs": [
        {
          "internalType": "address",
          "name": "",
          "type": "address"
        },
        {
          "internalType": "address",
          "name": "",
          "type": "address"
        },
        {
          "internalType": "uint256",
          "name": "",
          "type": "uint256"
        },
        {
          "internalType": "bytes",
          "name": "",
          "type": "bytes"
        }
      ],
      "name": "onERC721Received",
      "outputs": [
        {
          "internalType": "bytes4",
          "name": "",
          "type": "bytes4"
        }
      ],
      "stateMutability": "nonpayable",
      "type": "function"
    },
    {
      "inputs": [
        {
          "internalType": "bytes32",
          "name": "role",
          "type": "bytes32"
        },
        {
          "internalType": "address",
          "name": "callerConfirmation",
          "type": "address"
        }
      ],
      "name": "renounceRole",
      "outputs": [],
      "stateMutability": "nonpayable",
      "type": "function"
    },
    {
      "inputs": [
        {
          "internalType": "bytes32",
          "name": "role",
          "type": "bytes32"
        },
        {
          "internalType": "address",
          "name": "account",
          "type": "address"
        }
      ],
      "name": "revokeRole",
      "outputs": [],
      "stateMutability": "nonpayable",
      "type": "function"
    },
    {
      "inputs": [
        {
          "internalType": "address",
          "name": "target",
          "type": "address"
        },
        {
          "internalType": "uint256",
          "name": "value",
          "type": "uint256"
        },
        {
          "internalType": "bytes",
          "name": "data",
          "type": "bytes"
        },
        {
          "internalType": "bytes32",
          "name": "predecessor",
          "type": "bytes32"
        },
        {
          "internalType": "bytes32",
          "name": "salt",
          "type": "bytes32"
        },
        {
          "internalType": "uint256",
          "name": "delay",
          "type": "uint256"
        }
      ],
      "name": "schedule",
      "outputs": [],
      "stateMutability": "nonpayable",
      "type": "function"
    },
    {
      "inputs": [
        {
          "internalType": "address[]",
          "name": "targets",
          "type": "address[]"
        },
        {
          "internalType": "uint256[]",
          "name": "values",
          "type": "uint256[]"
        },
        {
          "internalType": "bytes[]",
          "name": "payloads",
          "type": "bytes[]"
        },
        {
          "internalType": "bytes32",
          "name": "predecessor",
          "type": "bytes32"
        },
        {
          "internalType": "bytes32",
          "name": "salt",
          "type": "bytes32"
        },
        {
          "internalType": "uint256",
          "name": "delay",
          "type": "uint256"
        }
      ],
      "name": "scheduleBatch",
      "outputs": [],
      "stateMutability": "nonpayable",
      "type": "function"
    },
    {
      "inputs": [
        {
          "internalType": "bytes4",
          "name": "interfaceId",
          "type": "bytes4"
        }
      ],
      "name": "supportsInterface",
      "outputs": [
        {
          "internalType": "bool",
          "name": "",
          "type": "bool"
        }
      ],
      "stateMutability": "view",
      "type": "function"
    },
    {
      "inputs": [
        {
          "internalType": "uint256",
          "name": "newDelay",
          "type": "uint256"
        }
      ],
      "name": "updateDelay",
      "outputs": [],
      "stateMutability": "nonpayable",
      "type": "function"
    },
    {
      "stateMutability": "payable",
      "type": "receive"
    }
  ],
  "bytecode": "0x60806040523480156200001157600080fd5b5060405162002459380380620024598339810160408190526200003491620003c2565b8282823362000045600030620001a7565b506001600160a01b03811615620000655762000063600082620001a7565b505b60005b83518110156200010557620000c07fb09aa5aeb3702cfd50b6b62bc4532604938f21248a27a1d5ca736082b6819cc1858381518110620000ac57620000ac62000452565b6020026020010151620001a760201b60201c565b50620000fb7ffd643c72710c63c0180259aba6b2d05451e3591a24e58b62239378085726f783858381518110620000ac57620000ac62000452565b5060010162000068565b5060005b825181101562000157576200014d7fd8aa0f3194971a2a116679f7c2090f6939c8d4e01a2a8d7e41d55e5351469e63848381518110620000ac57620000ac62000452565b5060010162000109565b5060028490556040517f11c24f4ead16507c69ac467fbd5e4eed5fb5c699626d2cc6d66421df253886d5906200019290600090879062000491565b60405180910390a150505050505050620004b7565b6000828152602081815260408083206001600160a01b038516845290915281205460ff166200024c576000838152602081815260408083206001600160a01b03861684529091529020805460ff19166001179055620002033390565b6001600160a01b0316826001600160a01b0316847f2f8788117e7eff1d82e926ec794901d17c78024a50270940304540a733656f0d60405160405180910390a450600162000250565b5060005b92915050565b805b81146200026457600080fd5b50565b8051620002508162000256565b634e487b7160e01b600052604160045260246000fd5b601f19601f83011681018181106001600160401b0382111715620002b257620002b262000274565b6040525050565b6000620002c560405190565b9050620002d382826200028a565b919050565b60006001600160401b03821115620002f457620002f462000274565b5060209081020190565b60006001600160a01b03821662000250565b6200025881620002fe565b8051620002508162000310565b60006200033f6200033984620002d8565b620002b9565b83815290506020808201908402830185811115620003605762000360600080fd5b835b818110156200038857806200037888826200031b565b8452506020928301920162000362565b5050509392505050565b600082601f830112620003a857620003a8600080fd5b8151620003ba84826020860162000328565b949350505050565b600080600060608486031215620003dc57620003dc600080fd5b6000620003ea868662000267565b93505060208401516001600160401b038111156200040b576200040b600080fd5b620004198682870162000392565b92505060408401516001600160401b038111156200043a576200043a600080fd5b620004488682870162000392565b9150509250925092565b634e487b7160e01b600052603260045260246000fd5b600062000250620004768381565b90565b620004848162000468565b82525050565b8062000484565b60408101620004a1828562000479565b620004b060208301846200048a565b9392505050565b611f9280620004c76000396000f3fe6080604052600436106101bb5760003560e01c80638065657f116100ec578063bc197c811161008a578063d547741f11610064578063d547741f14610590578063e38335e5146105b0578063f23a6e61146105c3578063f27a0c921461060857600080fd5b8063bc197c81146104fe578063c4d252f514610543578063d45c44351461056357600080fd5b806391d14854116100c657806391d1485414610451578063a217fddf14610495578063b08e51c0146104aa578063b1c5f427146104de57600080fd5b80638065657f146103dd5780638f2a0bb0146103fd5780638f61f4f51461041d57600080fd5b80632ab0f5291161015957806336568abe1161013357806336568abe14610350578063584b153e1461037057806364d62353146103905780637958004c146103b057600080fd5b80632ab0f529146102f05780632f2ff15d1461031057806331d507501461033057600080fd5b8063134008d311610195578063134008d31461026057806313bc9f2014610273578063150b7a0214610293578063248a9ca3146102c057600080fd5b806301d5062a146101c757806301ffc9a7146101e957806307bd02651461021f57600080fd5b366101c257005b600080fd5b3480156101d357600080fd5b506101e76101e23660046113c3565b61061d565b005b3480156101f557600080fd5b50610209610204366004611489565b6106f1565b60405161021691906114b4565b60405180910390f35b34801561022b57600080fd5b506102537fd8aa0f3194971a2a116679f7c2090f6939c8d4e01a2a8d7e41d55e5351469e6381565b60405161021691906114c8565b6101e761026e3660046114d6565b610702565b34801561027f57600080fd5b5061020961028e36600461156c565b6107fa565b34801561029f57600080fd5b506102b36102ae366004611688565b610820565b6040516102169190611717565b3480156102cc57600080fd5b506102536102db36600461156c565b60009081526020819052604090206001015490565b3480156102fc57600080fd5b5061020961030b36600461156c565b61084a565b34801561031c57600080fd5b506101e761032b366004611725565b610853565b34801561033c57600080fd5b5061020961034b36600461156c565b61087e565b34801561035c57600080fd5b506101e761036b366004611725565b6108a3565b34801561037c57600080fd5b5061020961038b36600461156c565b6108f4565b34801561039c57600080fd5b506101e76103ab36600461156c565b61093a565b3480156103bc57600080fd5b506103d06103cb36600461156c565b6109c0565b60405161021691906117a6565b3480156103e957600080fd5b506102536103f83660046114d6565b610a0b565b34801561040957600080fd5b506101e76104183660046117ff565b610a4a565b34801561042957600080fd5b506102537fb09aa5aeb3702cfd50b6b62bc4532604938f21248a27a1d5ca736082b6819cc181565b34801561045d57600080fd5b5061020961046c366004611725565b6000918252602082815260408084206001600160a01b0393909316845291905290205460ff1690565b3480156104a157600080fd5b50610253600081565b3480156104b657600080fd5b506102537ffd643c72710c63c0180259aba6b2d05451e3591a24e58b62239378085726f78381565b3480156104ea57600080fd5b506102536104f93660046118e7565b610be1565b34801561050a57600080fd5b506102b3610519366004611a5f565b7fbc197c810000000000000000000000000000000000000000000000000000000095945050505050565b34801561054f57600080fd5b506101e761055e36600461156c565b610c26565b34801561056f57600080fd5b5061025361057e36600461156c565b60009081526001602052604090205490565b34801561059c57600080fd5b506101e76105ab366004611725565b610cca565b6101e76105be3660046118e7565b610cef565b3480156105cf57600080fd5b506102b36105de366004611b28565b7ff23a6e610000000000000000000000000000000000000000000000000000000095945050505050565b34801561061457600080fd5b50600254610253565b7fb09aa5aeb3702cfd50b6b62bc4532604938f21248a27a1d5ca736082b6819cc161064781610ec4565b6000610657898989898989610a0b565b90506106638184610ed1565b6000817f4cf4410cc57040e44862ef0f45f3dd5a5e02db8eb8add648d4b0e236f1d07dca8b8b8b8b8b8a60405161069f96959493929190611bae565b60405180910390a383156106e657807f20fda5fd27a1ea7bf5b9567f143ac5470bb059374a27e8f67cb44f946f6d0387856040516106dd91906114c8565b60405180910390a25b505050505050505050565b60006106fc82610f71565b92915050565b600080527fdae2aa361dfd1ca020a396615627d436107c35eff9fe7738a3512819782d70696020527f5ba6852781629bcdcd4bdaa6de76d786f1c64b16acdac474e55bebc0ea157951547fd8aa0f3194971a2a116679f7c2090f6939c8d4e01a2a8d7e41d55e5351469e639060ff1661077f5761077f8133610faf565b600061078f888888888888610a0b565b905061079b8185611011565b6107a788888888611077565b6000817fc2617efa69bab66782fa219543714338489c4e9e178271560a91b82c3f612b588a8a8a8a6040516107df9493929190611c03565b60405180910390a36107f0816110ef565b5050505050505050565b600060025b610808836109c0565b600381111561081957610819611762565b1492915050565b7f150b7a02000000000000000000000000000000000000000000000000000000005b949350505050565b600060036107ff565b60008281526020819052604090206001015461086e81610ec4565b610878838361111b565b50505050565b60008061088a836109c0565b600381111561089b5761089b611762565b141592915050565b6001600160a01b03811633146108e5576040517f6697b23200000000000000000000000000000000000000000000000000000000815260040160405180910390fd5b6108ef82826111c5565b505050565b600080610900836109c0565b9050600181600381111561091657610916611762565b14806109335750600281600381111561093157610931611762565b145b9392505050565b3330811461097f57806040517fe2850c590000000000000000000000000000000000000000000000000000000081526004016109769190611c3b565b60405180910390fd5b7f11c24f4ead16507c69ac467fbd5e4eed5fb5c699626d2cc6d66421df253886d5600254836040516109b2929190611c49565b60405180910390a150600255565b600081815260016020526040812054806000036109e05750600092915050565b600181036109f15750600392915050565b42811115610a025750600192915050565b50600292915050565b6000868686868686604051602001610a2896959493929190611bae565b6040516020818303038152906040528051906020012090509695505050505050565b7fb09aa5aeb3702cfd50b6b62bc4532604938f21248a27a1d5ca736082b6819cc1610a7481610ec4565b8887141580610a835750888514155b15610ac0576040517fffb03211000000000000000000000000000000000000000000000000000000008152610976908a9087908a90600401611c64565b6000610ad28b8b8b8b8b8b8b8b610be1565b9050610ade8184610ed1565b60005b8a811015610b945780827f4cf4410cc57040e44862ef0f45f3dd5a5e02db8eb8add648d4b0e236f1d07dca8e8e85818110610b1e57610b1e611c8c565b9050602002016020810190610b339190611ca2565b8d8d86818110610b4557610b45611c8c565b905060200201358c8c87818110610b5e57610b5e611c8c565b9050602002810190610b709190611cc3565b8c8b604051610b8496959493929190611bae565b60405180910390a3600101610ae1565b508315610bd457807f20fda5fd27a1ea7bf5b9567f143ac5470bb059374a27e8f67cb44f946f6d038785604051610bcb91906114c8565b60405180910390a25b5050505050505050505050565b60008888888888888888604051602001610c02989796959493929190611ea6565b60405160208183030381529060405280519060200120905098975050505050505050565b7ffd643c72710c63c0180259aba6b2d05451e3591a24e58b62239378085726f783610c5081610ec4565b610c59826108f4565b610c8e5781610c686002611248565b610c726001611248565b17604051635ead8eb560e01b8152600401610976929190611c49565b6000828152600160205260408082208290555183917fbaa1eb22f2a492ba1a5fea61b8df4d27c6c8b5f3971e63bb58fa14ff72eedb7091a25050565b600082815260208190526040902060010154610ce581610ec4565b61087883836111c5565b600080527fdae2aa361dfd1ca020a396615627d436107c35eff9fe7738a3512819782d70696020527f5ba6852781629bcdcd4bdaa6de76d786f1c64b16acdac474e55bebc0ea157951547fd8aa0f3194971a2a116679f7c2090f6939c8d4e01a2a8d7e41d55e5351469e639060ff16610d6c57610d6c8133610faf565b8786141580610d7b5750878414155b15610db8576040517fffb0321100000000000000000000000000000000000000000000000000000000815261097690899086908990600401611c64565b6000610dca8a8a8a8a8a8a8a8a610be1565b9050610dd68185611011565b60005b89811015610eae5760008b8b83818110610df557610df5611c8c565b9050602002016020810190610e0a9190611ca2565b905060008a8a84818110610e2057610e20611c8c565b9050602002013590503660008a8a86818110610e3e57610e3e611c8c565b9050602002810190610e509190611cc3565b91509150610e6084848484611077565b84867fc2617efa69bab66782fa219543714338489c4e9e178271560a91b82c3f612b5886868686604051610e979493929190611c03565b60405180910390a350505050806001019050610dd9565b50610eb8816110ef565b50505050505050505050565b610ece8133610faf565b50565b610eda8261087e565b15610f055781610eea6000611248565b604051635ead8eb560e01b8152600401610976929190611c49565b6000610f1060025490565b905080821015610f505781816040517f54336609000000000000000000000000000000000000000000000000000000008152600401610976929190611c49565b610f5a8242611f21565b600093845260016020526040909320929092555050565b60006001600160e01b031982167f4e2312e00000000000000000000000000000000000000000000000000000000014806106fc57506106fc8261126b565b6000828152602081815260408083206001600160a01b038516845290915290205460ff1661100d5780826040517fe2517d3f000000000000000000000000000000000000000000000000000000008152600401610976929190611f34565b5050565b61101a826107fa565b6110295781610eea6002611248565b801580159061103e575061103c8161084a565b155b1561100d57806040517f90a9a61800000000000000000000000000000000000000000000000000000000815260040161097691906114c8565b600080856001600160a01b0316858585604051611095929190611f4f565b60006040518083038185875af1925050503d80600081146110d2576040519150601f19603f3d011682016040523d82523d6000602084013e6110d7565b606091505b50915091506110e682826112d2565b50505050505050565b6110f8816107fa565b6111075780610eea6002611248565b600090815260016020819052604090912055565b6000828152602081815260408083206001600160a01b038516845290915281205460ff166111bd576000838152602081815260408083206001600160a01b03861684529091529020805460ff191660011790556111753390565b6001600160a01b0316826001600160a01b0316847f2f8788117e7eff1d82e926ec794901d17c78024a50270940304540a733656f0d60405160405180910390a45060016106fc565b5060006106fc565b6000828152602081815260408083206001600160a01b038516845290915281205460ff16156111bd576000838152602081815260408083206001600160a01b0386168085529252808320805460ff1916905551339286917ff6391f5c32d9c69d2a47ea670b442974b53935d1edc7fd64eb21e047a839171b9190a45060016106fc565b600081600381111561125c5761125c611762565b600160ff919091161b92915050565b60006001600160e01b031982167f7965db0b0000000000000000000000000000000000000000000000000000000014806106fc57507f01ffc9a7000000000000000000000000000000000000000000000000000000006001600160e01b03198316146106fc565b6060826112e7576112e2826112ee565b6106fc565b50806106fc565b8051156112fe5780518082602001fd5b6040517fd6bda27500000000000000000000000000000000000000000000000000000000815260040160405180910390fd5b60006001600160a01b0382166106fc565b61134a81611330565b8114610ece57600080fd5b80356106fc81611341565b8061134a565b80356106fc81611360565b60008083601f84011261138657611386600080fd5b50813567ffffffffffffffff8111156113a1576113a1600080fd5b6020830191508360018202830111156113bc576113bc600080fd5b9250929050565b600080600080600080600060c0888a0312156113e1576113e1600080fd5b60006113ed8a8a611355565b97505060206113fe8a828b01611366565b965050604088013567ffffffffffffffff81111561141e5761141e600080fd5b61142a8a828b01611371565b9550955050606061143d8a828b01611366565b935050608061144e8a828b01611366565b92505060a061145f8a828b01611366565b91505092959891949750929550565b6001600160e01b0319811661134a565b80356106fc8161146e565b60006020828403121561149e5761149e600080fd5b6000610842848461147e565b8015155b82525050565b602081016106fc82846114aa565b806114ae565b602081016106fc82846114c2565b60008060008060008060a087890312156114f2576114f2600080fd5b60006114fe8989611355565b965050602061150f89828a01611366565b955050604087013567ffffffffffffffff81111561152f5761152f600080fd5b61153b89828a01611371565b9450945050606061154e89828a01611366565b925050608061155f89828a01611366565b9150509295509295509295565b60006020828403121561158157611581600080fd5b60006108428484611366565b634e487b7160e01b600052604160045260246000fd5b601f19601f830116810181811067ffffffffffffffff821117156115c9576115c961158d565b6040525050565b60006115db60405190565b90506115e782826115a3565b919050565b600067ffffffffffffffff8211156116065761160661158d565b601f19601f83011660200192915050565b82818337506000910152565b6000611636611631846115ec565b6115d0565b90508281526020810184848401111561165157611651600080fd5b61165c848285611617565b509392505050565b600082601f83011261167857611678600080fd5b8135610842848260208601611623565b600080600080608085870312156116a1576116a1600080fd5b60006116ad8787611355565b94505060206116be87828801611355565b93505060406116cf87828801611366565b925050606085013567ffffffffffffffff8111156116ef576116ef600080fd5b6116fb87828801611664565b91505092959194509250565b6001600160e01b031981166114ae565b602081016106fc8284611707565b6000806040838503121561173b5761173b600080fd5b60006117478585611366565b925050602061175885828601611355565b9150509250929050565b634e487b7160e01b600052602160045260246000fd5b60048110610ece57610ece611762565b806115e781611778565b60006106fc82611788565b6114ae81611792565b602081016106fc828461179d565b60008083601f8401126117c9576117c9600080fd5b50813567ffffffffffffffff8111156117e4576117e4600080fd5b6020830191508360208202830111156113bc576113bc600080fd5b600080600080600080600080600060c08a8c03121561182057611820600080fd5b893567ffffffffffffffff81111561183a5761183a600080fd5b6118468c828d016117b4565b995099505060208a013567ffffffffffffffff81111561186857611868600080fd5b6118748c828d016117b4565b975097505060408a013567ffffffffffffffff81111561189657611896600080fd5b6118a28c828d016117b4565b955095505060606118b58c828d01611366565b93505060806118c68c828d01611366565b92505060a06118d78c828d01611366565b9150509295985092959850929598565b60008060008060008060008060a0898b03121561190657611906600080fd5b883567ffffffffffffffff81111561192057611920600080fd5b61192c8b828c016117b4565b9850985050602089013567ffffffffffffffff81111561194e5761194e600080fd5b61195a8b828c016117b4565b9650965050604089013567ffffffffffffffff81111561197c5761197c600080fd5b6119888b828c016117b4565b9450945050606061199b8b828c01611366565b92505060806119ac8b828c01611366565b9150509295985092959890939650565b600067ffffffffffffffff8211156119d6576119d661158d565b5060209081020190565b60006119ee611631846119bc565b83815290506020808201908402830185811115611a0d57611a0d600080fd5b835b81811015611a315780611a228882611366565b84525060209283019201611a0f565b5050509392505050565b600082601f830112611a4f57611a4f600080fd5b81356108428482602086016119e0565b600080600080600060a08688031215611a7a57611a7a600080fd5b6000611a868888611355565b9550506020611a9788828901611355565b945050604086013567ffffffffffffffff811115611ab757611ab7600080fd5b611ac388828901611a3b565b935050606086013567ffffffffffffffff811115611ae357611ae3600080fd5b611aef88828901611a3b565b925050608086013567ffffffffffffffff811115611b0f57611b0f600080fd5b611b1b88828901611664565b9150509295509295909350565b600080600080600060a08688031215611b4357611b43600080fd5b6000611b4f8888611355565b9550506020611b6088828901611355565b9450506040611b7188828901611366565b9350506060611aef88828901611366565b6114ae81611330565b8183526000602084019350611ba1838584611617565b5050601f01601f19160190565b60a08101611bbc8289611b82565b611bc960208301886114c2565b8181036040830152611bdc818688611b8b565b9050611beb60608301856114c2565b611bf860808301846114c2565b979650505050505050565b60608101611c118287611b82565b611c1e60208301866114c2565b8181036040830152611c31818486611b8b565b9695505050505050565b602081016106fc8284611b82565b60408101611c5782856114c2565b61093360208301846114c2565b60608101611c7282866114c2565b611c7f60208301856114c2565b61084260408301846114c2565b634e487b7160e01b600052603260045260246000fd5b600060208284031215611cb757611cb7600080fd5b60006108428484611355565b6000808335601e1936859003018112611cde57611cde600080fd5b80840192508235915067ffffffffffffffff821115611cff57611cff600080fd5b602083019250600182023603831315611d1a57611d1a600080fd5b509250929050565b6000611d2e8383611b82565b505060200190565b60006109336020840184611355565b8183526000602084019350818060005b85811015611d8257611d678284611d36565b611d718882611d22565b975060208301925050600101611d55565b509495945050505050565b82818337505050565b81835260006020840193507f07ffffffffffffffffffffffffffffffffffffffffffffffffffffffffffffff831115611dd157611dd1600080fd5b602083029250611de2838584611d8d565b50500190565b6000610842848484611b8b565b6000808335601e1936859003018112611e1057611e10600080fd5b83810160208101935035915067ffffffffffffffff821115611e3457611e34600080fd5b36829003831315611d1a57611d1a600080fd5b818352600060208401935083602084028101838060005b87811015611e99578484038952611e758284611df5565b611e80868284611de8565b95506020840160209b909b019a93505050600101611e5e565b5091979650505050505050565b60a08082528101611eb8818a8c611d45565b90508181036020830152611ecd81888a611d96565b90508181036040830152611ee2818688611e47565b9050611ef160608301856114c2565b611efe60808301846114c2565b9998505050505050505050565b634e487b7160e01b600052601160045260246000fd5b808201808211156106fc576106fc611f0b565b60408101611c578285611b82565b6000611de2838584611617565b6000610842828486611f4256fea2646970667358221220a492e98df8d556d4b901f41773fcfbe139f26d815653bc9b5625c42cfe01e35864736f6c63430008170033",
  "linkReferences": {},
  "deployedLinkReferences": {}
}