{
    "_format": "hh-sol-artifact-1",
    "contractName": "FTSOConsumer",
    "sourceName": "contracts/FTSOConsumer.sol",
    "abi": [
        {
            "anonymous": false,
            "inputs": [
                {
                    "indexed": true,
                    "internalType": "address",
                    "name": "previousOwner",
                    "type": "address"
                },
                {
                    "indexed": true,
                    "internalType": "address",
                    "name": "newOwner",
                    "type": "address"
                }
            ],
            "name": "OwnershipTransferred",
            "type": "event"
        },
        {
            "anonymous": false,
            "inputs": [
                {
                    "indexed": false,
                    "internalType": "address",
                    "name": "account",
                    "type": "address"
                }
            ],
            "name": "Paused",
            "type": "event"
        },
        {
            "anonymous": false,
            "inputs": [
                {
                    "indexed": false,
                    "internalType": "bytes32[]",
                    "name": "symbols",
                    "type": "bytes32[]"
                },
                {
                    "indexed": false,
                    "internalType": "uint256[]",
                    "name": "prices",
                    "type": "uint256[]"
                },
                {
                    "indexed": false,
                    "internalType": "uint256[]",
                    "name": "timestamps",
                    "type": "uint256[]"
                }
            ],
            "name": "PriceBatchFetched",
            "type": "event"
        },
        {
            "anonymous": false,
            "inputs": [
                {
                    "indexed": false,
                    "internalType": "address",
                    "name": "account",
                    "type": "address"
                }
            ],
            "name": "Unpaused",
            "type": "event"
        },
        {
            "inputs": [],
            "name": "MAX_STALE",
            "outputs": [
                {
                    "internalType": "uint256",
                    "name": "",
                    "type": "uint256"
                }
            ],
            "stateMutability": "view",
            "type": "function"
        },
        {
            "inputs": [],
            "name": "fetchAllFeeds",
            "outputs": [
                {
                    "internalType": "bytes32[]",
                    "name": "symbols",
                    "type": "bytes32[]"
                },
                {
                    "internalType": "uint256[]",
                    "name": "prices",
                    "type": "uint256[]"
                },
                {
                    "internalType": "uint256[]",
                    "name": "timestamps",
                    "type": "uint256[]"
                }
            ],
            "stateMutability": "nonpayable",
            "type": "function"
        },
        {
            "inputs": [],
            "name": "owner",
            "outputs": [
                {
                    "internalType": "address",
                    "name": "",
                    "type": "address"
                }
            ],
            "stateMutability": "view",
            "type": "function"
        },
        {
            "inputs": [],
            "name": "pause",
            "outputs": [],
            "stateMutability": "nonpayable",
            "type": "function"
        },
        {
            "inputs": [],
            "name": "paused",
            "outputs": [
                {
                    "internalType": "bool",
                    "name": "",
                    "type": "bool"
                }
            ],
            "stateMutability": "view",
            "type": "function"
        },
        {
            "inputs": [],
            "name": "renounceOwnership",
            "outputs": [],
            "stateMutability": "nonpayable",
            "type": "function"
        },
        {
            "inputs": [
                {
                    "internalType": "address",
                    "name": "newOwner",
                    "type": "address"
                }
            ],
            "name": "transferOwnership",
            "outputs": [],
            "stateMutability": "nonpayable",
            "type": "function"
        },
        {
            "inputs": [],
            "name": "unpause",
            "outputs": [],
            "stateMutability": "nonpayable",
            "type": "function"
        }
    ],
    "bytecode": "0x608060405234801561001057600080fd5b5061002d61002261004c60201b60201c565b61005460201b60201c565b60008060146101000a81548160ff021916908315150217905550610118565b600033905090565b60008060009054906101000a900473ffffffffffffffffffffffffffffffffffffffff169050816000806101000a81548173ffffffffffffffffffffffffffffffffffffffff021916908373ffffffffffffffffffffffffffffffffffffffff1602179055508173ffffffffffffffffffffffffffffffffffffffff168173ffffffffffffffffffffffffffffffffffffffff167f8be0079c531659141344cd1fd0a4f28419497f9722a3daafe3b4186f6b6457e060405160405180910390a35050565b6116ba806101276000396000f3fe608060405234801561001057600080fd5b50600436106100885760003560e01c8063715018a61161005b578063715018a6146100f35780638456cb59146100fd5780638da5cb5b14610107578063f2fde38b1461012557610088565b806315ea50ae1461008d5780633f4ba83a146100ad578063562b40a0146100b75780635c975abb146100d5575b600080fd5b610095610141565b6040516100a493929190610ab1565b60405180910390f35b6100b56104f5565b005b6100bf610507565b6040516100cc9190610b0c565b60405180910390f35b6100dd61050d565b6040516100ea9190610b42565b60405180910390f35b6100fb610523565b005b610105610537565b005b61010f610549565b60405161011c9190610b9e565b60405180910390f35b61013f600480360381019061013a9190610bf9565b610572565b005b606080606061014e6105f5565b60008061015961063f565b73ffffffffffffffffffffffffffffffffffffffff1663e68f283b6040518163ffffffff1660e01b8152600401600060405180830381865afa1580156101a3573d6000803e3d6000fd5b505050506040513d6000823e3d601f19601f820116820180604052508101906101cc9190610f5c565b915091506000825190508067ffffffffffffffff8111156101f0576101ef610c3c565b5b60405190808252806020026020018201604052801561021e5781602001602082028036833780820191505090505b5095508067ffffffffffffffff81111561023b5761023a610c3c565b5b6040519080825280602002602001820160405280156102695781602001602082028036833780820191505090505b5094508067ffffffffffffffff81111561028657610285610c3c565b5b6040519080825280602002602001820160405280156102b45781602001602082028036833780820191505090505b50935060005b818110156104b15760008060006102cf61063f565b73ffffffffffffffffffffffffffffffffffffffff1663a69afdc68786815181106102fd576102fc610fd4565b5b60200260200101516040518263ffffffff1660e01b81526004016103219190611058565b606060405180830381865afa15801561033e573d6000803e3d6000fd5b505050506040513d601f19601f82011682018060405250810190610362919061107a565b925092509250600083116103ab576040517f08c379a00000000000000000000000000000000000000000000000000000000081526004016103a290611119565b60405180910390fd5b61012c82426103ba9190611168565b11156103fb576040517f08c379a00000000000000000000000000000000000000000000000000000000081526004016103f2906111e8565b60405180910390fd5b8060126104089190611168565b600a610414919061133b565b8361041f9190611386565b89858151811061043257610431610fd4565b5b6020026020010181815250508188858151811061045257610451610fd4565b5b60200260200101818152505085848151811061047157610470610fd4565b5b602002602001015161048290611405565b8a858151811061049557610494610fd4565b5b60200260200101818152505050505080806001019150506102ba565b507f23cc507aa126c242775ea80d6d26e57f6c943f1f2b0d17a8bca333e8c8f4ab138686866040516104e593929190610ab1565b60405180910390a1505050909192565b6104fd6106c9565b610505610747565b565b61012c81565b60008060149054906101000a900460ff16905090565b61052b6106c9565b61053560006107a9565b565b61053f6106c9565b61054761086d565b565b60008060009054906101000a900473ffffffffffffffffffffffffffffffffffffffff16905090565b61057a6106c9565b600073ffffffffffffffffffffffffffffffffffffffff168173ffffffffffffffffffffffffffffffffffffffff16036105e9576040517f08c379a00000000000000000000000000000000000000000000000000000000081526004016105e0906114de565b60405180910390fd5b6105f2816107a9565b50565b6105fd61050d565b1561063d576040517f08c379a00000000000000000000000000000000000000000000000000000000081526004016106349061154a565b60405180910390fd5b565b600073100000000000000000000000000000000000000373ffffffffffffffffffffffffffffffffffffffff16638c9d28b66040518163ffffffff1660e01b8152600401602060405180830381865afa1580156106a0573d6000803e3d6000fd5b505050506040513d601f19601f820116820180604052508101906106c4919061157f565b905090565b6106d16108d0565b73ffffffffffffffffffffffffffffffffffffffff166106ef610549565b73ffffffffffffffffffffffffffffffffffffffff1614610745576040517f08c379a000000000000000000000000000000000000000000000000000000000815260040161073c906115f8565b60405180910390fd5b565b61074f6108d8565b60008060146101000a81548160ff0219169083151502179055507f5db9ee0a495bf2e6ff9c91a7834c1ba4fdd244a5e8aa4e537bd38aeae4b073aa6107926108d0565b60405161079f9190610b9e565b60405180910390a1565b60008060009054906101000a900473ffffffffffffffffffffffffffffffffffffffff169050816000806101000a81548173ffffffffffffffffffffffffffffffffffffffff021916908373ffffffffffffffffffffffffffffffffffffffff1602179055508173ffffffffffffffffffffffffffffffffffffffff168173ffffffffffffffffffffffffffffffffffffffff167f8be0079c531659141344cd1fd0a4f28419497f9722a3daafe3b4186f6b6457e060405160405180910390a35050565b6108756105f5565b6001600060146101000a81548160ff0219169083151502179055507f62e78cea01bee320cd4e420270b5ea74000d11b0c9f74754ebdbfc544b05a2586108b96108d0565b6040516108c69190610b9e565b60405180910390a1565b600033905090565b6108e061050d565b61091f576040517f08c379a000000000000000000000000000000000000000000000000000000000815260040161091690611664565b60405180910390fd5b565b600081519050919050565b600082825260208201905092915050565b6000819050602082019050919050565b6000819050919050565b6109608161094d565b82525050565b60006109728383610957565b60208301905092915050565b6000602082019050919050565b600061099682610921565b6109a0818561092c565b93506109ab8361093d565b8060005b838110156109dc5781516109c38882610966565b97506109ce8361097e565b9250506001810190506109af565b5085935050505092915050565b600081519050919050565b600082825260208201905092915050565b6000819050602082019050919050565b6000819050919050565b610a2881610a15565b82525050565b6000610a3a8383610a1f565b60208301905092915050565b6000602082019050919050565b6000610a5e826109e9565b610a6881856109f4565b9350610a7383610a05565b8060005b83811015610aa4578151610a8b8882610a2e565b9750610a9683610a46565b925050600181019050610a77565b5085935050505092915050565b60006060820190508181036000830152610acb818661098b565b90508181036020830152610adf8185610a53565b90508181036040830152610af38184610a53565b9050949350505050565b610b0681610a15565b82525050565b6000602082019050610b216000830184610afd565b92915050565b60008115159050919050565b610b3c81610b27565b82525050565b6000602082019050610b576000830184610b33565b92915050565b600073ffffffffffffffffffffffffffffffffffffffff82169050919050565b6000610b8882610b5d565b9050919050565b610b9881610b7d565b82525050565b6000602082019050610bb36000830184610b8f565b92915050565b6000604051905090565b600080fd5b600080fd5b610bd681610b7d565b8114610be157600080fd5b50565b600081359050610bf381610bcd565b92915050565b600060208284031215610c0f57610c0e610bc3565b5b6000610c1d84828501610be4565b91505092915050565b600080fd5b6000601f19601f8301169050919050565b7f4e487b7100000000000000000000000000000000000000000000000000000000600052604160045260246000fd5b610c7482610c2b565b810181811067ffffffffffffffff82111715610c9357610c92610c3c565b5b80604052505050565b6000610ca6610bb9565b9050610cb28282610c6b565b919050565b600067ffffffffffffffff821115610cd257610cd1610c3c565b5b602082029050602081019050919050565b600080fd5b610cf181610a15565b8114610cfc57600080fd5b50565b600081519050610d0e81610ce8565b92915050565b6000610d27610d2284610cb7565b610c9c565b90508083825260208201905060208402830185811115610d4a57610d49610ce3565b5b835b81811015610d735780610d5f8882610cff565b845260208401935050602081019050610d4c565b5050509392505050565b600082601f830112610d9257610d91610c26565b5b8151610da2848260208601610d14565b91505092915050565b600067ffffffffffffffff821115610dc657610dc5610c3c565b5b602082029050602081019050919050565b600080fd5b600067ffffffffffffffff821115610df757610df6610c3c565b5b610e0082610c2b565b9050602081019050919050565b60005b83811015610e2b578082015181840152602081019050610e10565b60008484015250505050565b6000610e4a610e4584610ddc565b610c9c565b905082815260208101848484011115610e6657610e65610dd7565b5b610e71848285610e0d565b509392505050565b600082601f830112610e8e57610e8d610c26565b5b8151610e9e848260208601610e37565b91505092915050565b6000610eba610eb584610dab565b610c9c565b90508083825260208201905060208402830185811115610edd57610edc610ce3565b5b835b81811015610f2457805167ffffffffffffffff811115610f0257610f01610c26565b5b808601610f0f8982610e79565b85526020850194505050602081019050610edf565b5050509392505050565b600082601f830112610f4357610f42610c26565b5b8151610f53848260208601610ea7565b91505092915050565b60008060408385031215610f7357610f72610bc3565b5b600083015167ffffffffffffffff811115610f9157610f90610bc8565b5b610f9d85828601610d7d565b925050602083015167ffffffffffffffff811115610fbe57610fbd610bc8565b5b610fca85828601610f2e565b9150509250929050565b7f4e487b7100000000000000000000000000000000000000000000000000000000600052603260045260246000fd5b600081519050919050565b600082825260208201905092915050565b600061102a82611003565b611034818561100e565b9350611044818560208601610e0d565b61104d81610c2b565b840191505092915050565b60006020820190508181036000830152611072818461101f565b905092915050565b60008060006060848603121561109357611092610bc3565b5b60006110a186828701610cff565b93505060206110b286828701610cff565b92505060406110c386828701610cff565b9150509250925092565b7f4654534f436f6e73756d65723a207a65726f2070726963650000000000000000600082015250565b600061110360188361100e565b915061110e826110cd565b602082019050919050565b60006020820190508181036000830152611132816110f6565b9050919050565b7f4e487b7100000000000000000000000000000000000000000000000000000000600052601160045260246000fd5b600061117382610a15565b915061117e83610a15565b925082820390508181111561119657611195611139565b5b92915050565b7f4654534f436f6e73756d65723a207374616c6520707269636500000000000000600082015250565b60006111d260198361100e565b91506111dd8261119c565b602082019050919050565b60006020820190508181036000830152611201816111c5565b9050919050565b60008160011c9050919050565b6000808291508390505b600185111561125f5780860481111561123b5761123a611139565b5b600185161561124a5780820291505b808102905061125885611208565b945061121f565b94509492505050565b6000826112785760019050611334565b816112865760009050611334565b816001811461129c57600281146112a6576112d5565b6001915050611334565b60ff8411156112b8576112b7611139565b5b8360020a9150848211156112cf576112ce611139565b5b50611334565b5060208310610133831016604e8410600b841016171561130a5782820a90508381111561130557611304611139565b5b611334565b6113178484846001611215565b9250905081840481111561132e5761132d611139565b5b81810290505b9392505050565b600061134682610a15565b915061135183610a15565b925061137e7fffffffffffffffffffffffffffffffffffffffffffffffffffffffffffffffff8484611268565b905092915050565b600061139182610a15565b915061139c83610a15565b92508282026113aa81610a15565b915082820484148315176113c1576113c0611139565b5b5092915050565b600081519050919050565b6000819050602082019050919050565b60006113ef825161094d565b80915050919050565b600082821b905092915050565b6000611410826113c8565b8261141a846113d3565b9050611425816113e3565b92506020821015611465576114607fffffffffffffffffffffffffffffffffffffffffffffffffffffffffffffffff836020036008026113f8565b831692505b5050919050565b7f4f776e61626c653a206e6577206f776e657220697320746865207a65726f206160008201527f6464726573730000000000000000000000000000000000000000000000000000602082015250565b60006114c860268361100e565b91506114d38261146c565b604082019050919050565b600060208201905081810360008301526114f7816114bb565b9050919050565b7f5061757361626c653a2070617573656400000000000000000000000000000000600082015250565b600061153460108361100e565b915061153f826114fe565b602082019050919050565b6000602082019050818103600083015261156381611527565b9050919050565b60008151905061157981610bcd565b92915050565b60006020828403121561159557611594610bc3565b5b60006115a38482850161156a565b91505092915050565b7f4f776e61626c653a2063616c6c6572206973206e6f7420746865206f776e6572600082015250565b60006115e260208361100e565b91506115ed826115ac565b602082019050919050565b60006020820190508181036000830152611611816115d5565b9050919050565b7f5061757361626c653a206e6f7420706175736564000000000000000000000000600082015250565b600061164e60148361100e565b915061165982611618565b602082019050919050565b6000602082019050818103600083015261167d81611641565b905091905056fea2646970667358221220b69bef3155bda91ff87247a474c9d45b7af13a56022fc20e9b0c9b6fe70ed0fa64736f6c634300081c0033",
    "linkReferences": {},
    "deployedLinkReferences": {}
}