{
  "_format": "hh-sol-artifact-1",
  "contractName": "PricePredictorOracle",
  "sourceName": "contracts/FTSOConsumer.sol",
  "abi": [
    {
      "inputs": [
        {
          "internalType": "address",
          "name": "keeper",
          "type": "address"
        }
      ],
      "stateMutability": "nonpayable",
      "type": "constructor"
    },
    {
      "anonymous": false,
      "inputs": [
        {
          "indexed": false,
          "internalType": "bytes32[]",
          "name": "symbols",
          "type": "bytes32[]"
        },
        {
          "indexed": false,
          "internalType": "uint256[]",
          "name": "prices",
          "type": "uint256[]"
        },
        {
          "indexed": false,
          "internalType": "uint256[]",
          "name": "timestamps",
          "type": "uint256[]"
        }
      ],
      "name": "CachedFeedsUpdated",
      "type": "event"
    },
    {
      "anonymous": false,
      "inputs": [
        {
          "indexed": false,
          "internalType": "address",
          "name": "account",
          "type": "address"
        }
      ],
      "name": "Paused",
      "type": "event"
    },
    {
      "anonymous": false,
      "inputs": [
        {
          "indexed": true,
          "internalType": "bytes32",
          "name": "role",
          "type": "bytes32"
        },
        {
          "indexed": true,
          "internalType": "bytes32",
          "name": "previousAdminRole",
          "type": "bytes32"
        },
        {
          "indexed": true,
          "internalType": "bytes32",
          "name": "newAdminRole",
          "type": "bytes32"
        }
      ],
      "name": "RoleAdminChanged",
      "type": "event"
    },
    {
      "anonymous": false,
      "inputs": [
        {
          "indexed": true,
          "internalType": "bytes32",
          "name": "role",
          "type": "bytes32"
        },
        {
          "indexed": true,
          "internalType": "address",
          "name": "account",
          "type": "address"
        },
        {
          "indexed": true,
          "internalType": "address",
          "name": "sender",
          "type": "address"
        }
      ],
      "name": "RoleGranted",
      "type": "event"
    },
    {
      "anonymous": false,
      "inputs": [
        {
          "indexed": true,
          "internalType": "bytes32",
          "name": "role",
          "type": "bytes32"
        },
        {
          "indexed": true,
          "internalType": "address",
          "name": "account",
          "type": "address"
        },
        {
          "indexed": true,
          "internalType": "address",
          "name": "sender",
          "type": "address"
        }
      ],
      "name": "RoleRevoked",
      "type": "event"
    },
    {
      "anonymous": false,
      "inputs": [
        {
          "indexed": false,
          "internalType": "address",
          "name": "account",
          "type": "address"
        }
      ],
      "name": "Unpaused",
      "type": "event"
    },
    {
      "inputs": [],
      "name": "DEFAULT_ADMIN_ROLE",
      "outputs": [
        {
          "internalType": "bytes32",
          "name": "",
          "type": "bytes32"
        }
      ],
      "stateMutability": "view",
      "type": "function"
    },
    {
      "inputs": [],
      "name": "KEEPER_ROLE",
      "outputs": [
        {
          "internalType": "bytes32",
          "name": "",
          "type": "bytes32"
        }
      ],
      "stateMutability": "view",
      "type": "function"
    },
    {
      "inputs": [],
      "name": "MAX_STALE",
      "outputs": [
        {
          "internalType": "uint256",
          "name": "",
          "type": "uint256"
        }
      ],
      "stateMutability": "view",
      "type": "function"
    },
    {
      "inputs": [
        {
          "internalType": "bytes32",
          "name": "symbol",
          "type": "bytes32"
        }
      ],
      "name": "addSymbol",
      "outputs": [],
      "stateMutability": "nonpayable",
      "type": "function"
    },
    {
      "inputs": [],
      "name": "getAllCached",
      "outputs": [
        {
          "internalType": "bytes32[]",
          "name": "symbols",
          "type": "bytes32[]"
        },
        {
          "internalType": "uint256[]",
          "name": "prices",
          "type": "uint256[]"
        },
        {
          "internalType": "uint256[]",
          "name": "timestamps",
          "type": "uint256[]"
        }
      ],
      "stateMutability": "view",
      "type": "function"
    },
    {
      "inputs": [
        {
          "internalType": "bytes32",
          "name": "symbol",
          "type": "bytes32"
        }
      ],
      "name": "getCachedPrice",
      "outputs": [
        {
          "internalType": "uint256",
          "name": "price",
          "type": "uint256"
        },
        {
          "internalType": "uint256",
          "name": "timestamp",
          "type": "uint256"
        }
      ],
      "stateMutability": "view",
      "type": "function"
    },
    {
      "inputs": [
        {
          "internalType": "bytes32",
          "name": "role",
          "type": "bytes32"
        }
      ],
      "name": "getRoleAdmin",
      "outputs": [
        {
          "internalType": "bytes32",
          "name": "",
          "type": "bytes32"
        }
      ],
      "stateMutability": "view",
      "type": "function"
    },
    {
      "inputs": [
        {
          "internalType": "bytes32",
          "name": "role",
          "type": "bytes32"
        },
        {
          "internalType": "address",
          "name": "account",
          "type": "address"
        }
      ],
      "name": "grantRole",
      "outputs": [],
      "stateMutability": "nonpayable",
      "type": "function"
    },
    {
      "inputs": [
        {
          "internalType": "bytes32",
          "name": "role",
          "type": "bytes32"
        },
        {
          "internalType": "address",
          "name": "account",
          "type": "address"
        }
      ],
      "name": "hasRole",
      "outputs": [
        {
          "internalType": "bool",
          "name": "",
          "type": "bool"
        }
      ],
      "stateMutability": "view",
      "type": "function"
    },
    {
      "inputs": [],
      "name": "pause",
      "outputs": [],
      "stateMutability": "nonpayable",
      "type": "function"
    },
    {
      "inputs": [],
      "name": "paused",
      "outputs": [
        {
          "internalType": "bool",
          "name": "",
          "type": "bool"
        }
      ],
      "stateMutability": "view",
      "type": "function"
    },
    {
      "inputs": [
        {
          "internalType": "bytes32",
          "name": "symbol",
          "type": "bytes32"
        }
      ],
      "name": "removeSymbol",
      "outputs": [],
      "stateMutability": "nonpayable",
      "type": "function"
    },
    {
      "inputs": [
        {
          "internalType": "bytes32",
          "name": "role",
          "type": "bytes32"
        },
        {
          "internalType": "address",
          "name": "account",
          "type": "address"
        }
      ],
      "name": "renounceRole",
      "outputs": [],
      "stateMutability": "nonpayable",
      "type": "function"
    },
    {
      "inputs": [
        {
          "internalType": "bytes32",
          "name": "role",
          "type": "bytes32"
        },
        {
          "internalType": "address",
          "name": "account",
          "type": "address"
        }
      ],
      "name": "revokeRole",
      "outputs": [],
      "stateMutability": "nonpayable",
      "type": "function"
    },
    {
      "inputs": [
        {
          "internalType": "bytes4",
          "name": "interfaceId",
          "type": "bytes4"
        }
      ],
      "name": "supportsInterface",
      "outputs": [
        {
          "internalType": "bool",
          "name": "",
          "type": "bool"
        }
      ],
      "stateMutability": "view",
      "type": "function"
    },
    {
      "inputs": [],
      "name": "unpause",
      "outputs": [],
      "stateMutability": "nonpayable",
      "type": "function"
    },
    {
      "inputs": [],
      "name": "updateCachedFeeds",
      "outputs": [],
      "stateMutability": "nonpayable",
      "type": "function"
    }
  ],
  "bytecode": "0x608060405234801561001057600080fd5b5060405161274e38038061274e83398181016040528101906100329190610257565b6000600160006101000a81548160ff0219169083151502179055506100606000801b3361009660201b60201c565b6100907ffc8737ab85eb45125971625a9ebdb75cc78e01d5c1fa80c4c6e5203f47bc4fab8261009660201b60201c565b50610284565b6100a6828261018260201b60201c565b61017e57600160008084815260200190815260200160002060000160008373ffffffffffffffffffffffffffffffffffffffff1673ffffffffffffffffffffffffffffffffffffffff16815260200190815260200160002060006101000a81548160ff0219169083151502179055506101236101ec60201b60201c565b73ffffffffffffffffffffffffffffffffffffffff168173ffffffffffffffffffffffffffffffffffffffff16837f2f8788117e7eff1d82e926ec794901d17c78024a50270940304540a733656f0d60405160405180910390a45b5050565b600080600084815260200190815260200160002060000160008373ffffffffffffffffffffffffffffffffffffffff1673ffffffffffffffffffffffffffffffffffffffff16815260200190815260200160002060009054906101000a900460ff16905092915050565b600033905090565b600080fd5b600073ffffffffffffffffffffffffffffffffffffffff82169050919050565b6000610224826101f9565b9050919050565b61023481610219565b811461023f57600080fd5b50565b6000815190506102518161022b565b92915050565b60006020828403121561026d5761026c6101f4565b5b600061027b84828501610242565b91505092915050565b6124bb806102936000396000f3fe608060405234801561001057600080fd5b506004361061010b5760003560e01c80634565d67a116100a257806391d148541161007157806391d1485414610258578063a217fddf14610288578063b03910e8146102a6578063d547741f146102c6578063f25d7f7f146102e25761010b565b80634565d67a14610208578063562b40a0146102125780635c975abb146102305780638456cb591461024e5761010b565b80632f2ff15d116100de5780632f2ff15d146101a8578063364bc15a146101c457806336568abe146101e25780633f4ba83a146101fe5761010b565b806301ffc9a7146101105780631b71a9db14610140578063248a9ca31461015c578063289e029b1461018c575b600080fd5b61012a60048036038101906101259190611686565b610313565b60405161013791906116ce565b60405180910390f35b61015a6004803603810190610155919061171f565b61038d565b005b6101766004803603810190610171919061171f565b6103f1565b604051610183919061175b565b60405180910390f35b6101a660048036038101906101a1919061171f565b610410565b005b6101c260048036038101906101bd91906117d4565b610474565b005b6101cc610495565b6040516101d9919061175b565b60405180910390f35b6101fc60048036038101906101f791906117d4565b6104b9565b005b61020661053c565b005b610210610554565b005b61021a6108e6565b604051610227919061182d565b60405180910390f35b6102386108ec565b60405161024591906116ce565b60405180910390f35b610256610903565b005b610272600480360381019061026d91906117d4565b61091b565b60405161027f91906116ce565b60405180910390f35b610290610985565b60405161029d919061175b565b60405180910390f35b6102ae61098c565b6040516102bd939291906119c4565b60405180910390f35b6102e060048036038101906102db91906117d4565b610ada565b005b6102fc60048036038101906102f7919061171f565b610afb565b60405161030a929190611a10565b60405180910390f35b60007f7965db0b000000000000000000000000000000000000000000000000000000007bffffffffffffffffffffffffffffffffffffffffffffffffffffffff1916827bffffffffffffffffffffffffffffffffffffffffffffffffffffffff19161480610386575061038582610b70565b5b9050919050565b6000801b61039a81610bda565b6103ae826002610bee90919063ffffffff16565b6103ed576040517f08c379a00000000000000000000000000000000000000000000000000000000081526004016103e490611a96565b60405180910390fd5b5050565b6000806000838152602001908152602001600020600101549050919050565b6000801b61041d81610bda565b610431826002610c0590919063ffffffff16565b610470576040517f08c379a000000000000000000000000000000000000000000000000000000000815260040161046790611b02565b60405180910390fd5b5050565b61047d826103f1565b61048681610bda565b6104908383610c1c565b505050565b7ffc8737ab85eb45125971625a9ebdb75cc78e01d5c1fa80c4c6e5203f47bc4fab81565b6104c1610cfc565b73ffffffffffffffffffffffffffffffffffffffff168173ffffffffffffffffffffffffffffffffffffffff161461052e576040517f08c379a000000000000000000000000000000000000000000000000000000000815260040161052590611b94565b60405180910390fd5b6105388282610d04565b5050565b6000801b61054981610bda565b610551610de5565b50565b61055c610e48565b7ffc8737ab85eb45125971625a9ebdb75cc78e01d5c1fa80c4c6e5203f47bc4fab61058681610bda565b60006105926002610e92565b9050600081116105d7576040517f08c379a00000000000000000000000000000000000000000000000000000000081526004016105ce90611c00565b60405180910390fd5b60006105e36002610ea7565b905060008267ffffffffffffffff81111561060157610600611c20565b5b60405190808252806020026020018201604052801561062f5781602001602082028036833780820191505090505b50905060008367ffffffffffffffff81111561064e5761064d611c20565b5b60405190808252806020026020018201604052801561067c5781602001602082028036833780820191505090505b50905060005b848110156108a35760006106af8583815181106106a2576106a1611c4f565b5b6020026020010151610ebc565b905060008060006106be611007565b73ffffffffffffffffffffffffffffffffffffffff1663a69afdc6856040518263ffffffff1660e01b81526004016106f69190611cfd565b606060405180830381865afa158015610713573d6000803e3d6000fd5b505050506040513d601f19601f820116820180604052508101906107379190611d4b565b92509250925060008311610780576040517f08c379a000000000000000000000000000000000000000000000000000000000815260040161077790611dea565b60405180910390fd5b61012c824261078f9190611e39565b11156107d0576040517f08c379a00000000000000000000000000000000000000000000000000000000081526004016107c790611eb9565b60405180910390fd5b60008160126107df9190611e39565b600a6107eb919061200c565b846107f69190612057565b9050604051806040016040528082815260200184815250600460008b898151811061082457610823611c4f565b5b6020026020010151815260200190815260200160002060008201518160000155602082015181600101559050508088878151811061086557610864611c4f565b5b6020026020010181815250508287878151811061088557610884611c4f565b5b60200260200101818152505050505050508080600101915050610682565b507f1b9a8fe82a837d57f3ff20f2e1b5ea894db900820680fa9855e8914d8393f05d8383836040516108d7939291906119c4565b60405180910390a15050505050565b61012c81565b6000600160009054906101000a900460ff16905090565b6000801b61091081610bda565b610918611091565b50565b600080600084815260200190815260200160002060000160008373ffffffffffffffffffffffffffffffffffffffff1673ffffffffffffffffffffffffffffffffffffffff16815260200190815260200160002060009054906101000a900460ff16905092915050565b6000801b81565b6060806060600061099d6002610e92565b90506109a96002610ea7565b93508067ffffffffffffffff8111156109c5576109c4611c20565b5b6040519080825280602002602001820160405280156109f35781602001602082028036833780820191505090505b5092508067ffffffffffffffff811115610a1057610a0f611c20565b5b604051908082528060200260200182016040528015610a3e5781602001602082028036833780820191505090505b50915060005b81811015610ad357600060046000878481518110610a6557610a64611c4f565b5b6020026020010151815260200190815260200160002090508060000154858381518110610a9557610a94611c4f565b5b6020026020010181815250508060010154848381518110610ab957610ab8611c4f565b5b602002602001018181525050508080600101915050610a44565b5050909192565b610ae3826103f1565b610aec81610bda565b610af68383610d04565b505050565b60008060006004600085815260200190815260200160002090506000816000015411610b5c576040517f08c379a0000000000000000000000000000000000000000000000000000000008152600401610b53906120e5565b60405180910390fd5b806000015481600101549250925050915091565b60007f01ffc9a7000000000000000000000000000000000000000000000000000000007bffffffffffffffffffffffffffffffffffffffffffffffffffffffff1916827bffffffffffffffffffffffffffffffffffffffffffffffffffffffff1916149050919050565b610beb81610be6610cfc565b6110f3565b50565b6000610bfd8360000183611190565b905092915050565b6000610c1483600001836112a4565b905092915050565b610c26828261091b565b610cf857600160008084815260200190815260200160002060000160008373ffffffffffffffffffffffffffffffffffffffff1673ffffffffffffffffffffffffffffffffffffffff16815260200190815260200160002060006101000a81548160ff021916908315150217905550610c9d610cfc565b73ffffffffffffffffffffffffffffffffffffffff168173ffffffffffffffffffffffffffffffffffffffff16837f2f8788117e7eff1d82e926ec794901d17c78024a50270940304540a733656f0d60405160405180910390a45b5050565b600033905090565b610d0e828261091b565b15610de157600080600084815260200190815260200160002060000160008373ffffffffffffffffffffffffffffffffffffffff1673ffffffffffffffffffffffffffffffffffffffff16815260200190815260200160002060006101000a81548160ff021916908315150217905550610d86610cfc565b73ffffffffffffffffffffffffffffffffffffffff168173ffffffffffffffffffffffffffffffffffffffff16837ff6391f5c32d9c69d2a47ea670b442974b53935d1edc7fd64eb21e047a839171b60405160405180910390a45b5050565b610ded611314565b6000600160006101000a81548160ff0219169083151502179055507f5db9ee0a495bf2e6ff9c91a7834c1ba4fdd244a5e8aa4e537bd38aeae4b073aa610e31610cfc565b604051610e3e9190612114565b60405180910390a1565b610e506108ec565b15610e90576040517f08c379a0000000000000000000000000000000000000000000000000000000008152600401610e879061217b565b60405180910390fd5b565b6000610ea08260000161135d565b9050919050565b6060610eb58260000161136e565b9050919050565b606060005b60208160ff16108015610f135750600060f81b838260ff1660208110610eea57610ee9611c4f565b5b1a60f81b7effffffffffffffffffffffffffffffffffffffffffffffffffffffffffffff191614155b15610f2b578080610f23906121a8565b915050610ec1565b60008160ff1667ffffffffffffffff811115610f4a57610f49611c20565b5b6040519080825280601f01601f191660200182016040528015610f7c5781602001600182028036833780820191505090505b50905060005b8260ff168160ff161015610ffc57848160ff1660208110610fa657610fa5611c4f565b5b1a60f81b828260ff1681518110610fc057610fbf611c4f565b5b60200101907effffffffffffffffffffffffffffffffffffffffffffffffffffffffffffff1916908160001a9053508080600101915050610f82565b508092505050919050565b600073100000000000000000000000000000000000000373ffffffffffffffffffffffffffffffffffffffff16638c9d28b66040518163ffffffff1660e01b8152600401602060405180830381865afa158015611068573d6000803e3d6000fd5b505050506040513d601f19601f8201168201806040525081019061108c91906121e6565b905090565b611099610e48565b60018060006101000a81548160ff0219169083151502179055507f62e78cea01bee320cd4e420270b5ea74000d11b0c9f74754ebdbfc544b05a2586110dc610cfc565b6040516110e99190612114565b60405180910390a1565b6110fd828261091b565b61118c576111228173ffffffffffffffffffffffffffffffffffffffff1660146113ca565b6111308360001c60206113ca565b6040516020016111419291906122e7565b6040516020818303038152906040526040517f08c379a00000000000000000000000000000000000000000000000000000000081526004016111839190611cfd565b60405180910390fd5b5050565b600080836001016000848152602001908152602001600020549050600081146112985760006001826111c29190611e39565b90506000600186600001805490506111da9190611e39565b90508181146112495760008660000182815481106111fb576111fa611c4f565b5b906000526020600020015490508087600001848154811061121f5761121e611c4f565b5b90600052602060002001819055508387600101600083815260200190815260200160002081905550505b8560000180548061125d5761125c612321565b5b60019003818190600052602060002001600090559055856001016000868152602001908152602001600020600090556001935050505061129e565b60009150505b92915050565b60006112b08383611606565b61130957826000018290806001815401808255809150506001900390600052602060002001600090919091909150558260000180549050836001016000848152602001908152602001600020819055506001905061130e565b600090505b92915050565b61131c6108ec565b61135b576040517f08c379a00000000000000000000000000000000000000000000000000000000081526004016113529061239c565b60405180910390fd5b565b600081600001805490509050919050565b6060816000018054806020026020016040519081016040528092919081815260200182805480156113be57602002820191906000526020600020905b8154815260200190600101908083116113aa575b50505050509050919050565b6060600060028360026113dd9190612057565b6113e791906123bc565b67ffffffffffffffff811115611400576113ff611c20565b5b6040519080825280601f01601f1916602001820160405280156114325781602001600182028036833780820191505090505b5090507f30000000000000000000000000000000000000000000000000000000000000008160008151811061146a57611469611c4f565b5b60200101907effffffffffffffffffffffffffffffffffffffffffffffffffffffffffffff1916908160001a9053507f7800000000000000000000000000000000000000000000000000000000000000816001815181106114ce576114cd611c4f565b5b60200101907effffffffffffffffffffffffffffffffffffffffffffffffffffffffffffff1916908160001a9053506000600184600261150e9190612057565b61151891906123bc565b90505b60018111156115b8577f3031323334353637383961626364656600000000000000000000000000000000600f86166010811061155a57611559611c4f565b5b1a60f81b82828151811061157157611570611c4f565b5b60200101907effffffffffffffffffffffffffffffffffffffffffffffffffffffffffffff1916908160001a905350600485901c9450806115b1906123f0565b905061151b565b50600084146115fc576040517f08c379a00000000000000000000000000000000000000000000000000000000081526004016115f390612465565b60405180910390fd5b8091505092915050565b600080836001016000848152602001908152602001600020541415905092915050565b600080fd5b60007fffffffff0000000000000000000000000000000000000000000000000000000082169050919050565b6116638161162e565b811461166e57600080fd5b50565b6000813590506116808161165a565b92915050565b60006020828403121561169c5761169b611629565b5b60006116aa84828501611671565b91505092915050565b60008115159050919050565b6116c8816116b3565b82525050565b60006020820190506116e360008301846116bf565b92915050565b6000819050919050565b6116fc816116e9565b811461170757600080fd5b50565b600081359050611719816116f3565b92915050565b60006020828403121561173557611734611629565b5b60006117438482850161170a565b91505092915050565b611755816116e9565b82525050565b6000602082019050611770600083018461174c565b92915050565b600073ffffffffffffffffffffffffffffffffffffffff82169050919050565b60006117a182611776565b9050919050565b6117b181611796565b81146117bc57600080fd5b50565b6000813590506117ce816117a8565b92915050565b600080604083850312156117eb576117ea611629565b5b60006117f98582860161170a565b925050602061180a858286016117bf565b9150509250929050565b6000819050919050565b61182781611814565b82525050565b6000602082019050611842600083018461181e565b92915050565b600081519050919050565b600082825260208201905092915050565b6000819050602082019050919050565b61187d816116e9565b82525050565b600061188f8383611874565b60208301905092915050565b6000602082019050919050565b60006118b382611848565b6118bd8185611853565b93506118c883611864565b8060005b838110156118f95781516118e08882611883565b97506118eb8361189b565b9250506001810190506118cc565b5085935050505092915050565b600081519050919050565b600082825260208201905092915050565b6000819050602082019050919050565b61193b81611814565b82525050565b600061194d8383611932565b60208301905092915050565b6000602082019050919050565b600061197182611906565b61197b8185611911565b935061198683611922565b8060005b838110156119b757815161199e8882611941565b97506119a983611959565b92505060018101905061198a565b5085935050505092915050565b600060608201905081810360008301526119de81866118a8565b905081810360208301526119f28185611966565b90508181036040830152611a068184611966565b9050949350505050565b6000604082019050611a25600083018561181e565b611a32602083018461181e565b9392505050565b600082825260208201905092915050565b7f6e6f7420747261636b6564000000000000000000000000000000000000000000600082015250565b6000611a80600b83611a39565b9150611a8b82611a4a565b602082019050919050565b60006020820190508181036000830152611aaf81611a73565b9050919050565b7f616c726561647920747261636b65640000000000000000000000000000000000600082015250565b6000611aec600f83611a39565b9150611af782611ab6565b602082019050919050565b60006020820190508181036000830152611b1b81611adf565b9050919050565b7f416363657373436f6e74726f6c3a2063616e206f6e6c792072656e6f756e636560008201527f20726f6c657320666f722073656c660000000000000000000000000000000000602082015250565b6000611b7e602f83611a39565b9150611b8982611b22565b604082019050919050565b60006020820190508181036000830152611bad81611b71565b9050919050565b7f6e6f2073796d626f6c7300000000000000000000000000000000000000000000600082015250565b6000611bea600a83611a39565b9150611bf582611bb4565b602082019050919050565b60006020820190508181036000830152611c1981611bdd565b9050919050565b7f4e487b7100000000000000000000000000000000000000000000000000000000600052604160045260246000fd5b7f4e487b7100000000000000000000000000000000000000000000000000000000600052603260045260246000fd5b600081519050919050565b60005b83811015611ca7578082015181840152602081019050611c8c565b60008484015250505050565b6000601f19601f8301169050919050565b6000611ccf82611c7e565b611cd98185611a39565b9350611ce9818560208601611c89565b611cf281611cb3565b840191505092915050565b60006020820190508181036000830152611d178184611cc4565b905092915050565b611d2881611814565b8114611d3357600080fd5b50565b600081519050611d4581611d1f565b92915050565b600080600060608486031215611d6457611d63611629565b5b6000611d7286828701611d36565b9350506020611d8386828701611d36565b9250506040611d9486828701611d36565b9150509250925092565b7f7a65726f20707269636500000000000000000000000000000000000000000000600082015250565b6000611dd4600a83611a39565b9150611ddf82611d9e565b602082019050919050565b60006020820190508181036000830152611e0381611dc7565b9050919050565b7f4e487b7100000000000000000000000000000000000000000000000000000000600052601160045260246000fd5b6000611e4482611814565b9150611e4f83611814565b9250828203905081811115611e6757611e66611e0a565b5b92915050565b7f7374616c65207072696365000000000000000000000000000000000000000000600082015250565b6000611ea3600b83611a39565b9150611eae82611e6d565b602082019050919050565b60006020820190508181036000830152611ed281611e96565b9050919050565b60008160011c9050919050565b6000808291508390505b6001851115611f3057808604811115611f0c57611f0b611e0a565b5b6001851615611f1b5780820291505b8081029050611f2985611ed9565b9450611ef0565b94509492505050565b600082611f495760019050612005565b81611f575760009050612005565b8160018114611f6d5760028114611f7757611fa6565b6001915050612005565b60ff841115611f8957611f88611e0a565b5b8360020a915084821115611fa057611f9f611e0a565b5b50612005565b5060208310610133831016604e8410600b8410161715611fdb5782820a905083811115611fd657611fd5611e0a565b5b612005565b611fe88484846001611ee6565b92509050818404811115611fff57611ffe611e0a565b5b81810290505b9392505050565b600061201782611814565b915061202283611814565b925061204f7fffffffffffffffffffffffffffffffffffffffffffffffffffffffffffffffff8484611f39565b905092915050565b600061206282611814565b915061206d83611814565b925082820261207b81611814565b9150828204841483151761209257612091611e0a565b5b5092915050565b7f6e65766572207570646174656400000000000000000000000000000000000000600082015250565b60006120cf600d83611a39565b91506120da82612099565b602082019050919050565b600060208201905081810360008301526120fe816120c2565b9050919050565b61210e81611796565b82525050565b60006020820190506121296000830184612105565b92915050565b7f5061757361626c653a2070617573656400000000000000000000000000000000600082015250565b6000612165601083611a39565b91506121708261212f565b602082019050919050565b6000602082019050818103600083015261219481612158565b9050919050565b600060ff82169050919050565b60006121b38261219b565b915060ff82036121c6576121c5611e0a565b5b600182019050919050565b6000815190506121e0816117a8565b92915050565b6000602082840312156121fc576121fb611629565b5b600061220a848285016121d1565b91505092915050565b600081905092915050565b7f416363657373436f6e74726f6c3a206163636f756e7420000000000000000000600082015250565b6000612254601783612213565b915061225f8261221e565b601782019050919050565b600061227582611c7e565b61227f8185612213565b935061228f818560208601611c89565b80840191505092915050565b7f206973206d697373696e6720726f6c6520000000000000000000000000000000600082015250565b60006122d1601183612213565b91506122dc8261229b565b601182019050919050565b60006122f282612247565b91506122fe828561226a565b9150612309826122c4565b9150612315828461226a565b91508190509392505050565b7f4e487b7100000000000000000000000000000000000000000000000000000000600052603160045260246000fd5b7f5061757361626c653a206e6f7420706175736564000000000000000000000000600082015250565b6000612386601483611a39565b915061239182612350565b602082019050919050565b600060208201905081810360008301526123b581612379565b9050919050565b60006123c782611814565b91506123d283611814565b92508282019050808211156123ea576123e9611e0a565b5b92915050565b60006123fb82611814565b91506000820361240e5761240d611e0a565b5b600182039050919050565b7f537472696e67733a20686578206c656e67746820696e73756666696369656e74600082015250565b600061244f602083611a39565b915061245a82612419565b602082019050919050565b6000602082019050818103600083015261247e81612442565b905091905056fea26469706673582212206bd1e439bd6a8311fc632d5d2f765fbd97da32aa38d6a922cac60d1745369c2f64736f6c634300081c0033",
  "linkReferences": {},
  "deployedLinkReferences": {}
}