{
  "_format": "hh-sol-artifact-1",
  "contractName": "TruthAnchorGovernor",
  "sourceName": "contracts/filefind/Govenor.sol",
  "abi": [
    {
      "inputs": [
        {
          "internalType": "contract IVotes",
          "name": "_token",
          "type": "address"
        },
        {
          "internalType": "contract TimelockController",
          "name": "_timelock",
          "type": "address"
        }
      ],
      "stateMutability": "nonpayable",
      "type": "constructor"
    },
    {
      "inputs": [],
      "name": "CheckpointUnorderedInsertion",
      "type": "error"
    },
    {
      "inputs": [],
      "name": "FailedCall",
      "type": "error"
    },
    {
      "inputs": [
        {
          "internalType": "address",
          "name": "voter",
          "type": "address"
        }
      ],
      "name": "GovernorAlreadyCastVote",
      "type": "error"
    },
    {
      "inputs": [
        {
          "internalType": "uint256",
          "name": "proposalId",
          "type": "uint256"
        }
      ],
      "name": "GovernorAlreadyQueuedProposal",
      "type": "error"
    },
    {
      "inputs": [],
      "name": "GovernorDisabledDeposit",
      "type": "error"
    },
    {
      "inputs": [
        {
          "internalType": "address",
          "name": "proposer",
          "type": "address"
        },
        {
          "internalType": "uint256",
          "name": "votes",
          "type": "uint256"
        },
        {
          "internalType": "uint256",
          "name": "threshold",
          "type": "uint256"
        }
      ],
      "name": "GovernorInsufficientProposerVotes",
      "type": "error"
    },
    {
      "inputs": [
        {
          "internalType": "uint256",
          "name": "targets",
          "type": "uint256"
        },
        {
          "internalType": "uint256",
          "name": "calldatas",
          "type": "uint256"
        },
        {
          "internalType": "uint256",
          "name": "values",
          "type": "uint256"
        }
      ],
      "name": "GovernorInvalidProposalLength",
      "type": "error"
    },
    {
      "inputs": [
        {
          "internalType": "uint256",
          "name": "quorumNumerator",
          "type": "uint256"
        },
        {
          "internalType": "uint256",
          "name": "quorumDenominator",
          "type": "uint256"
        }
      ],
      "name": "GovernorInvalidQuorumFraction",
      "type": "error"
    },
    {
      "inputs": [
        {
          "internalType": "address",
          "name": "voter",
          "type": "address"
        }
      ],
      "name": "GovernorInvalidSignature",
      "type": "error"
    },
    {
      "inputs": [],
      "name": "GovernorInvalidVoteParams",
      "type": "error"
    },
    {
      "inputs": [],
      "name": "GovernorInvalidVoteType",
      "type": "error"
    },
    {
      "inputs": [
        {
          "internalType": "uint256",
          "name": "votingPeriod",
          "type": "uint256"
        }
      ],
      "name": "GovernorInvalidVotingPeriod",
      "type": "error"
    },
    {
      "inputs": [
        {
          "internalType": "uint256",
          "name": "proposalId",
          "type": "uint256"
        }
      ],
      "name": "GovernorNonexistentProposal",
      "type": "error"
    },
    {
      "inputs": [
        {
          "internalType": "uint256",
          "name": "proposalId",
          "type": "uint256"
        }
      ],
      "name": "GovernorNotQueuedProposal",
      "type": "error"
    },
    {
      "inputs": [
        {
          "internalType": "address",
          "name": "account",
          "type": "address"
        }
      ],
      "name": "GovernorOnlyExecutor",
      "type": "error"
    },
    {
      "inputs": [
        {
          "internalType": "address",
          "name": "account",
          "type": "address"
        }
      ],
      "name": "GovernorOnlyProposer",
      "type": "error"
    },
    {
      "inputs": [],
      "name": "GovernorQueueNotImplemented",
      "type": "error"
    },
    {
      "inputs": [
        {
          "internalType": "address",
          "name": "proposer",
          "type": "address"
        }
      ],
      "name": "GovernorRestrictedProposer",
      "type": "error"
    },
    {
      "inputs": [
        {
          "internalType": "uint256",
          "name": "proposalId",
          "type": "uint256"
        },
        {
          "internalType": "enum IGovernor.ProposalState",
          "name": "current",
          "type": "uint8"
        },
        {
          "internalType": "bytes32",
          "name": "expectedStates",
          "type": "bytes32"
        }
      ],
      "name": "GovernorUnexpectedProposalState",
      "type": "error"
    },
    {
      "inputs": [
        {
          "internalType": "address",
          "name": "account",
          "type": "address"
        },
        {
          "internalType": "uint256",
          "name": "currentNonce",
          "type": "uint256"
        }
      ],
      "name": "InvalidAccountNonce",
      "type": "error"
    },
    {
      "inputs": [],
      "name": "InvalidShortString",
      "type": "error"
    },
    {
      "inputs": [
        {
          "internalType": "uint8",
          "name": "bits",
          "type": "uint8"
        },
        {
          "internalType": "uint256",
          "name": "value",
          "type": "uint256"
        }
      ],
      "name": "SafeCastOverflowedUintDowncast",
      "type": "error"
    },
    {
      "inputs": [
        {
          "internalType": "string",
          "name": "str",
          "type": "string"
        }
      ],
      "name": "StringTooLong",
      "type": "error"
    },
    {
      "anonymous": false,
      "inputs": [],
      "name": "EIP712DomainChanged",
      "type": "event"
    },
    {
      "anonymous": false,
      "inputs": [
        {
          "indexed": false,
          "internalType": "uint256",
          "name": "proposalId",
          "type": "uint256"
        }
      ],
      "name": "ProposalCanceled",
      "type": "event"
    },
    {
      "anonymous": false,
      "inputs": [
        {
          "indexed": false,
          "internalType": "uint256",
          "name": "proposalId",
          "type": "uint256"
        },
        {
          "indexed": false,
          "internalType": "address",
          "name": "proposer",
          "type": "address"
        },
        {
          "indexed": false,
          "internalType": "address[]",
          "name": "targets",
          "type": "address[]"
        },
        {
          "indexed": false,
          "internalType": "uint256[]",
          "name": "values",
          "type": "uint256[]"
        },
        {
          "indexed": false,
          "internalType": "string[]",
          "name": "signatures",
          "type": "string[]"
        },
        {
          "indexed": false,
          "internalType": "bytes[]",
          "name": "calldatas",
          "type": "bytes[]"
        },
        {
          "indexed": false,
          "internalType": "uint256",
          "name": "voteStart",
          "type": "uint256"
        },
        {
          "indexed": false,
          "internalType": "uint256",
          "name": "voteEnd",
          "type": "uint256"
        },
        {
          "indexed": false,
          "internalType": "string",
          "name": "description",
          "type": "string"
        }
      ],
      "name": "ProposalCreated",
      "type": "event"
    },
    {
      "anonymous": false,
      "inputs": [
        {
          "indexed": false,
          "internalType": "uint256",
          "name": "proposalId",
          "type": "uint256"
        }
      ],
      "name": "ProposalExecuted",
      "type": "event"
    },
    {
      "anonymous": false,
      "inputs": [
        {
          "indexed": false,
          "internalType": "uint256",
          "name": "proposalId",
          "type": "uint256"
        },
        {
          "indexed": false,
          "internalType": "uint256",
          "name": "etaSeconds",
          "type": "uint256"
        }
      ],
      "name": "ProposalQueued",
      "type": "event"
    },
    {
      "anonymous": false,
      "inputs": [
        {
          "indexed": false,
          "internalType": "uint256",
          "name": "oldProposalThreshold",
          "type": "uint256"
        },
        {
          "indexed": false,
          "internalType": "uint256",
          "name": "newProposalThreshold",
          "type": "uint256"
        }
      ],
      "name": "ProposalThresholdSet",
      "type": "event"
    },
    {
      "anonymous": false,
      "inputs": [
        {
          "indexed": false,
          "internalType": "uint256",
          "name": "oldQuorumNumerator",
          "type": "uint256"
        },
        {
          "indexed": false,
          "internalType": "uint256",
          "name": "newQuorumNumerator",
          "type": "uint256"
        }
      ],
      "name": "QuorumNumeratorUpdated",
      "type": "event"
    },
    {
      "anonymous": false,
      "inputs": [
        {
          "indexed": false,
          "internalType": "address",
          "name": "oldTimelock",
          "type": "address"
        },
        {
          "indexed": false,
          "internalType": "address",
          "name": "newTimelock",
          "type": "address"
        }
      ],
      "name": "TimelockChange",
      "type": "event"
    },
    {
      "anonymous": false,
      "inputs": [
        {
          "indexed": true,
          "internalType": "address",
          "name": "voter",
          "type": "address"
        },
        {
          "indexed": false,
          "internalType": "uint256",
          "name": "proposalId",
          "type": "uint256"
        },
        {
          "indexed": false,
          "internalType": "uint8",
          "name": "support",
          "type": "uint8"
        },
        {
          "indexed": false,
          "internalType": "uint256",
          "name": "weight",
          "type": "uint256"
        },
        {
          "indexed": false,
          "internalType": "string",
          "name": "reason",
          "type": "string"
        }
      ],
      "name": "VoteCast",
      "type": "event"
    },
    {
      "anonymous": false,
      "inputs": [
        {
          "indexed": true,
          "internalType": "address",
          "name": "voter",
          "type": "address"
        },
        {
          "indexed": false,
          "internalType": "uint256",
          "name": "proposalId",
          "type": "uint256"
        },
        {
          "indexed": false,
          "internalType": "uint8",
          "name": "support",
          "type": "uint8"
        },
        {
          "indexed": false,
          "internalType": "uint256",
          "name": "weight",
          "type": "uint256"
        },
        {
          "indexed": false,
          "internalType": "string",
          "name": "reason",
          "type": "string"
        },
        {
          "indexed": false,
          "internalType": "bytes",
          "name": "params",
          "type": "bytes"
        }
      ],
      "name": "VoteCastWithParams",
      "type": "event"
    },
    {
      "anonymous": false,
      "inputs": [
        {
          "indexed": false,
          "internalType": "uint256",
          "name": "oldVotingDelay",
          "type": "uint256"
        },
        {
          "indexed": false,
          "internalType": "uint256",
          "name": "newVotingDelay",
          "type": "uint256"
        }
      ],
      "name": "VotingDelaySet",
      "type": "event"
    },
    {
      "anonymous": false,
      "inputs": [
        {
          "indexed": false,
          "internalType": "uint256",
          "name": "oldVotingPeriod",
          "type": "uint256"
        },
        {
          "indexed": false,
          "internalType": "uint256",
          "name": "newVotingPeriod",
          "type": "uint256"
        }
      ],
      "name": "VotingPeriodSet",
      "type": "event"
    },
    {
      "inputs": [],
      "name": "BALLOT_TYPEHASH",
      "outputs": [
        {
          "internalType": "bytes32",
          "name": "",
          "type": "bytes32"
        }
      ],
      "stateMutability": "view",
      "type": "function"
    },
    {
      "inputs": [],
      "name": "CLOCK_MODE",
      "outputs": [
        {
          "internalType": "string",
          "name": "",
          "type": "string"
        }
      ],
      "stateMutability": "view",
      "type": "function"
    },
    {
      "inputs": [],
      "name": "COUNTING_MODE",
      "outputs": [
        {
          "internalType": "string",
          "name": "",
          "type": "string"
        }
      ],
      "stateMutability": "pure",
      "type": "function"
    },
    {
      "inputs": [],
      "name": "EXTENDED_BALLOT_TYPEHASH",
      "outputs": [
        {
          "internalType": "bytes32",
          "name": "",
          "type": "bytes32"
        }
      ],
      "stateMutability": "view",
      "type": "function"
    },
    {
      "inputs": [
        {
          "internalType": "address[]",
          "name": "targets",
          "type": "address[]"
        },
        {
          "internalType": "uint256[]",
          "name": "values",
          "type": "uint256[]"
        },
        {
          "internalType": "bytes[]",
          "name": "calldatas",
          "type": "bytes[]"
        },
        {
          "internalType": "bytes32",
          "name": "descriptionHash",
          "type": "bytes32"
        }
      ],
      "name": "cancel",
      "outputs": [
        {
          "internalType": "uint256",
          "name": "",
          "type": "uint256"
        }
      ],
      "stateMutability": "nonpayable",
      "type": "function"
    },
    {
      "inputs": [
        {
          "internalType": "uint256",
          "name": "proposalId",
          "type": "uint256"
        },
        {
          "internalType": "uint8",
          "name": "support",
          "type": "uint8"
        }
      ],
      "name": "castVote",
      "outputs": [
        {
          "internalType": "uint256",
          "name": "",
          "type": "uint256"
        }
      ],
      "stateMutability": "nonpayable",
      "type": "function"
    },
    {
      "inputs": [
        {
          "internalType": "uint256",
          "name": "proposalId",
          "type": "uint256"
        },
        {
          "internalType": "uint8",
          "name": "support",
          "type": "uint8"
        },
        {
          "internalType": "address",
          "name": "voter",
          "type": "address"
        },
        {
          "internalType": "bytes",
          "name": "signature",
          "type": "bytes"
        }
      ],
      "name": "castVoteBySig",
      "outputs": [
        {
          "internalType": "uint256",
          "name": "",
          "type": "uint256"
        }
      ],
      "stateMutability": "nonpayable",
      "type": "function"
    },
    {
      "inputs": [
        {
          "internalType": "uint256",
          "name": "proposalId",
          "type": "uint256"
        },
        {
          "internalType": "uint8",
          "name": "support",
          "type": "uint8"
        },
        {
          "internalType": "string",
          "name": "reason",
          "type": "string"
        }
      ],
      "name": "castVoteWithReason",
      "outputs": [
        {
          "internalType": "uint256",
          "name": "",
          "type": "uint256"
        }
      ],
      "stateMutability": "nonpayable",
      "type": "function"
    },
    {
      "inputs": [
        {
          "internalType": "uint256",
          "name": "proposalId",
          "type": "uint256"
        },
        {
          "internalType": "uint8",
          "name": "support",
          "type": "uint8"
        },
        {
          "internalType": "string",
          "name": "reason",
          "type": "string"
        },
        {
          "internalType": "bytes",
          "name": "params",
          "type": "bytes"
        }
      ],
      "name": "castVoteWithReasonAndParams",
      "outputs": [
        {
          "internalType": "uint256",
          "name": "",
          "type": "uint256"
        }
      ],
      "stateMutability": "nonpayable",
      "type": "function"
    },
    {
      "inputs": [
        {
          "internalType": "uint256",
          "name": "proposalId",
          "type": "uint256"
        },
        {
          "internalType": "uint8",
          "name": "support",
          "type": "uint8"
        },
        {
          "internalType": "address",
          "name": "voter",
          "type": "address"
        },
        {
          "internalType": "string",
          "name": "reason",
          "type": "string"
        },
        {
          "internalType": "bytes",
          "name": "params",
          "type": "bytes"
        },
        {
          "internalType": "bytes",
          "name": "signature",
          "type": "bytes"
        }
      ],
      "name": "castVoteWithReasonAndParamsBySig",
      "outputs": [
        {
          "internalType": "uint256",
          "name": "",
          "type": "uint256"
        }
      ],
      "stateMutability": "nonpayable",
      "type": "function"
    },
    {
      "inputs": [],
      "name": "clock",
      "outputs": [
        {
          "internalType": "uint48",
          "name": "",
          "type": "uint48"
        }
      ],
      "stateMutability": "view",
      "type": "function"
    },
    {
      "inputs": [],
      "name": "eip712Domain",
      "outputs": [
        {
          "internalType": "bytes1",
          "name": "fields",
          "type": "bytes1"
        },
        {
          "internalType": "string",
          "name": "name",
          "type": "string"
        },
        {
          "internalType": "string",
          "name": "version",
          "type": "string"
        },
        {
          "internalType": "uint256",
          "name": "chainId",
          "type": "uint256"
        },
        {
          "internalType": "address",
          "name": "verifyingContract",
          "type": "address"
        },
        {
          "internalType": "bytes32",
          "name": "salt",
          "type": "bytes32"
        },
        {
          "internalType": "uint256[]",
          "name": "extensions",
          "type": "uint256[]"
        }
      ],
      "stateMutability": "view",
      "type": "function"
    },
    {
      "inputs": [
        {
          "internalType": "address[]",
          "name": "targets",
          "type": "address[]"
        },
        {
          "internalType": "uint256[]",
          "name": "values",
          "type": "uint256[]"
        },
        {
          "internalType": "bytes[]",
          "name": "calldatas",
          "type": "bytes[]"
        },
        {
          "internalType": "bytes32",
          "name": "descriptionHash",
          "type": "bytes32"
        }
      ],
      "name": "execute",
      "outputs": [
        {
          "internalType": "uint256",
          "name": "",
          "type": "uint256"
        }
      ],
      "stateMutability": "payable",
      "type": "function"
    },
    {
      "inputs": [
        {
          "internalType": "address",
          "name": "account",
          "type": "address"
        },
        {
          "internalType": "uint256",
          "name": "timepoint",
          "type": "uint256"
        }
      ],
      "name": "getVotes",
      "outputs": [
        {
          "internalType": "uint256",
          "name": "",
          "type": "uint256"
        }
      ],
      "stateMutability": "view",
      "type": "function"
    },
    {
      "inputs": [
        {
          "internalType": "address",
          "name": "account",
          "type": "address"
        },
        {
          "internalType": "uint256",
          "name": "timepoint",
          "type": "uint256"
        },
        {
          "internalType": "bytes",
          "name": "params",
          "type": "bytes"
        }
      ],
      "name": "getVotesWithParams",
      "outputs": [
        {
          "internalType": "uint256",
          "name": "",
          "type": "uint256"
        }
      ],
      "stateMutability": "view",
      "type": "function"
    },
    {
      "inputs": [
        {
          "internalType": "uint256",
          "name": "proposalId",
          "type": "uint256"
        },
        {
          "internalType": "address",
          "name": "account",
          "type": "address"
        }
      ],
      "name": "hasVoted",
      "outputs": [
        {
          "internalType": "bool",
          "name": "",
          "type": "bool"
        }
      ],
      "stateMutability": "view",
      "type": "function"
    },
    {
      "inputs": [
        {
          "internalType": "address[]",
          "name": "targets",
          "type": "address[]"
        },
        {
          "internalType": "uint256[]",
          "name": "values",
          "type": "uint256[]"
        },
        {
          "internalType": "bytes[]",
          "name": "calldatas",
          "type": "bytes[]"
        },
        {
          "internalType": "bytes32",
          "name": "descriptionHash",
          "type": "bytes32"
        }
      ],
      "name": "hashProposal",
      "outputs": [
        {
          "internalType": "uint256",
          "name": "",
          "type": "uint256"
        }
      ],
      "stateMutability": "pure",
      "type": "function"
    },
    {
      "inputs": [],
      "name": "name",
      "outputs": [
        {
          "internalType": "string",
          "name": "",
          "type": "string"
        }
      ],
      "stateMutability": "view",
      "type": "function"
    },
    {
      "inputs": [
        {
          "internalType": "address",
          "name": "owner",
          "type": "address"
        }
      ],
      "name": "nonces",
      "outputs": [
        {
          "internalType": "uint256",
          "name": "",
          "type": "uint256"
        }
      ],
      "stateMutability": "view",
      "type": "function"
    },
    {
      "inputs": [],
      "name": "noop",
      "outputs": [],
      "stateMutability": "pure",
      "type": "function"
    },
    {
      "inputs": [
        {
          "internalType": "address",
          "name": "",
          "type": "address"
        },
        {
          "internalType": "address",
          "name": "",
          "type": "address"
        },
        {
          "internalType": "uint256[]",
          "name": "",
          "type": "uint256[]"
        },
        {
          "internalType": "uint256[]",
          "name": "",
          "type": "uint256[]"
        },
        {
          "internalType": "bytes",
          "name": "",
          "type": "bytes"
        }
      ],
      "name": "onERC1155BatchReceived",
      "outputs": [
        {
          "internalType": "bytes4",
          "name": "",
          "type": "bytes4"
        }
      ],
      "stateMutability": "nonpayable",
      "type": "function"
    },
    {
      "inputs": [
        {
          "internalType": "address",
          "name": "",
          "type": "address"
        },
        {
          "internalType": "address",
          "name": "",
          "type": "address"
        },
        {
          "internalType": "uint256",
          "name": "",
          "type": "uint256"
        },
        {
          "internalType": "uint256",
          "name": "",
          "type": "uint256"
        },
        {
          "internalType": "bytes",
          "name": "",
          "type": "bytes"
        }
      ],
      "name": "onERC1155Received",
      "outputs": [
        {
          "internalType": "bytes4",
          "name": "",
          "type": "bytes4"
        }
      ],
      "stateMutability": "nonpayable",
      "type": "function"
    },
    {
      "inputs": [
        {
          "internalType": "address",
          "name": "",
          "type": "address"
        },
        {
          "internalType": "address",
          "name": "",
          "type": "address"
        },
        {
          "internalType": "uint256",
          "name": "",
          "type": "uint256"
        },
        {
          "internalType": "bytes",
          "name": "",
          "type": "bytes"
        }
      ],
      "name": "onERC721Received",
      "outputs": [
        {
          "internalType": "bytes4",
          "name": "",
          "type": "bytes4"
        }
      ],
      "stateMutability": "nonpayable",
      "type": "function"
    },
    {
      "inputs": [
        {
          "internalType": "uint256",
          "name": "proposalId",
          "type": "uint256"
        }
      ],
      "name": "proposalDeadline",
      "outputs": [
        {
          "internalType": "uint256",
          "name": "",
          "type": "uint256"
        }
      ],
      "stateMutability": "view",
      "type": "function"
    },
    {
      "inputs": [
        {
          "internalType": "uint256",
          "name": "proposalId",
          "type": "uint256"
        }
      ],
      "name": "proposalEta",
      "outputs": [
        {
          "internalType": "uint256",
          "name": "",
          "type": "uint256"
        }
      ],
      "stateMutability": "view",
      "type": "function"
    },
    {
      "inputs": [
        {
          "internalType": "uint256",
          "name": "proposalId",
          "type": "uint256"
        }
      ],
      "name": "proposalNeedsQueuing",
      "outputs": [
        {
          "internalType": "bool",
          "name": "",
          "type": "bool"
        }
      ],
      "stateMutability": "view",
      "type": "function"
    },
    {
      "inputs": [
        {
          "internalType": "uint256",
          "name": "proposalId",
          "type": "uint256"
        }
      ],
      "name": "proposalProposer",
      "outputs": [
        {
          "internalType": "address",
          "name": "",
          "type": "address"
        }
      ],
      "stateMutability": "view",
      "type": "function"
    },
    {
      "inputs": [
        {
          "internalType": "uint256",
          "name": "proposalId",
          "type": "uint256"
        }
      ],
      "name": "proposalSnapshot",
      "outputs": [
        {
          "internalType": "uint256",
          "name": "",
          "type": "uint256"
        }
      ],
      "stateMutability": "view",
      "type": "function"
    },
    {
      "inputs": [],
      "name": "proposalThreshold",
      "outputs": [
        {
          "internalType": "uint256",
          "name": "",
          "type": "uint256"
        }
      ],
      "stateMutability": "view",
      "type": "function"
    },
    {
      "inputs": [
        {
          "internalType": "uint256",
          "name": "proposalId",
          "type": "uint256"
        }
      ],
      "name": "proposalVotes",
      "outputs": [
        {
          "internalType": "uint256",
          "name": "againstVotes",
          "type": "uint256"
        },
        {
          "internalType": "uint256",
          "name": "forVotes",
          "type": "uint256"
        },
        {
          "internalType": "uint256",
          "name": "abstainVotes",
          "type": "uint256"
        }
      ],
      "stateMutability": "view",
      "type": "function"
    },
    {
      "inputs": [
        {
          "internalType": "address[]",
          "name": "targets",
          "type": "address[]"
        },
        {
          "internalType": "uint256[]",
          "name": "values",
          "type": "uint256[]"
        },
        {
          "internalType": "bytes[]",
          "name": "calldatas",
          "type": "bytes[]"
        },
        {
          "internalType": "string",
          "name": "description",
          "type": "string"
        }
      ],
      "name": "propose",
      "outputs": [
        {
          "internalType": "uint256",
          "name": "",
          "type": "uint256"
        }
      ],
      "stateMutability": "nonpayable",
      "type": "function"
    },
    {
      "inputs": [
        {
          "internalType": "string",
          "name": "_twitterHandle",
          "type": "string"
        }
      ],
      "name": "proposeTwitterHandle",
      "outputs": [
        {
          "internalType": "uint256",
          "name": "",
          "type": "uint256"
        }
      ],
      "stateMutability": "nonpayable",
      "type": "function"
    },
    {
      "inputs": [
        {
          "internalType": "address[]",
          "name": "targets",
          "type": "address[]"
        },
        {
          "internalType": "uint256[]",
          "name": "values",
          "type": "uint256[]"
        },
        {
          "internalType": "bytes[]",
          "name": "calldatas",
          "type": "bytes[]"
        },
        {
          "internalType": "bytes32",
          "name": "descriptionHash",
          "type": "bytes32"
        }
      ],
      "name": "queue",
      "outputs": [
        {
          "internalType": "uint256",
          "name": "",
          "type": "uint256"
        }
      ],
      "stateMutability": "nonpayable",
      "type": "function"
    },
    {
      "inputs": [
        {
          "internalType": "uint256",
          "name": "blockNumber",
          "type": "uint256"
        }
      ],
      "name": "quorum",
      "outputs": [
        {
          "internalType": "uint256",
          "name": "",
          "type": "uint256"
        }
      ],
      "stateMutability": "view",
      "type": "function"
    },
    {
      "inputs": [],
      "name": "quorumDenominator",
      "outputs": [
        {
          "internalType": "uint256",
          "name": "",
          "type": "uint256"
        }
      ],
      "stateMutability": "view",
      "type": "function"
    },
    {
      "inputs": [
        {
          "internalType": "uint256",
          "name": "timepoint",
          "type": "uint256"
        }
      ],
      "name": "quorumNumerator",
      "outputs": [
        {
          "internalType": "uint256",
          "name": "",
          "type": "uint256"
        }
      ],
      "stateMutability": "view",
      "type": "function"
    },
    {
      "inputs": [],
      "name": "quorumNumerator",
      "outputs": [
        {
          "internalType": "uint256",
          "name": "",
          "type": "uint256"
        }
      ],
      "stateMutability": "view",
      "type": "function"
    },
    {
      "inputs": [
        {
          "internalType": "address",
          "name": "target",
          "type": "address"
        },
        {
          "internalType": "uint256",
          "name": "value",
          "type": "uint256"
        },
        {
          "internalType": "bytes",
          "name": "data",
          "type": "bytes"
        }
      ],
      "name": "relay",
      "outputs": [],
      "stateMutability": "payable",
      "type": "function"
    },
    {
      "inputs": [
        {
          "internalType": "uint256",
          "name": "newProposalThreshold",
          "type": "uint256"
        }
      ],
      "name": "setProposalThreshold",
      "outputs": [],
      "stateMutability": "nonpayable",
      "type": "function"
    },
    {
      "inputs": [
        {
          "internalType": "uint48",
          "name": "newVotingDelay",
          "type": "uint48"
        }
      ],
      "name": "setVotingDelay",
      "outputs": [],
      "stateMutability": "nonpayable",
      "type": "function"
    },
    {
      "inputs": [
        {
          "internalType": "uint32",
          "name": "newVotingPeriod",
          "type": "uint32"
        }
      ],
      "name": "setVotingPeriod",
      "outputs": [],
      "stateMutability": "nonpayable",
      "type": "function"
    },
    {
      "inputs": [
        {
          "internalType": "uint256",
          "name": "proposalId",
          "type": "uint256"
        }
      ],
      "name": "state",
      "outputs": [
        {
          "internalType": "enum IGovernor.ProposalState",
          "name": "",
          "type": "uint8"
        }
      ],
      "stateMutability": "view",
      "type": "function"
    },
    {
      "inputs": [
        {
          "internalType": "bytes4",
          "name": "interfaceId",
          "type": "bytes4"
        }
      ],
      "name": "supportsInterface",
      "outputs": [
        {
          "internalType": "bool",
          "name": "",
          "type": "bool"
        }
      ],
      "stateMutability": "view",
      "type": "function"
    },
    {
      "inputs": [],
      "name": "timelock",
      "outputs": [
        {
          "internalType": "address",
          "name": "",
          "type": "address"
        }
      ],
      "stateMutability": "view",
      "type": "function"
    },
    {
      "inputs": [],
      "name": "token",
      "outputs": [
        {
          "internalType": "contract IERC5805",
          "name": "",
          "type": "address"
        }
      ],
      "stateMutability": "view",
      "type": "function"
    },
    {
      "inputs": [
        {
          "internalType": "uint256",
          "name": "",
          "type": "uint256"
        }
      ],
      "name": "twitterProposals",
      "outputs": [
        {
          "internalType": "string",
          "name": "twitterHandle",
          "type": "string"
        },
        {
          "internalType": "uint256",
          "name": "forVotes",
          "type": "uint256"
        },
        {
          "internalType": "uint256",
          "name": "againstVotes",
          "type": "uint256"
        },
        {
          "internalType": "uint256",
          "name": "abstainVotes",
          "type": "uint256"
        }
      ],
      "stateMutability": "view",
      "type": "function"
    },
    {
      "inputs": [
        {
          "internalType": "uint256",
          "name": "newQuorumNumerator",
          "type": "uint256"
        }
      ],
      "name": "updateQuorumNumerator",
      "outputs": [],
      "stateMutability": "nonpayable",
      "type": "function"
    },
    {
      "inputs": [
        {
          "internalType": "contract TimelockController",
          "name": "newTimelock",
          "type": "address"
        }
      ],
      "name": "updateTimelock",
      "outputs": [],
      "stateMutability": "nonpayable",
      "type": "function"
    },
    {
      "inputs": [],
      "name": "version",
      "outputs": [
        {
          "internalType": "string",
          "name": "",
          "type": "string"
        }
      ],
      "stateMutability": "view",
      "type": "function"
    },
    {
      "inputs": [],
      "name": "votingDelay",
      "outputs": [
        {
          "internalType": "uint256",
          "name": "",
          "type": "uint256"
        }
      ],
      "stateMutability": "view",
      "type": "function"
    },
    {
      "inputs": [],
      "name": "votingPeriod",
      "outputs": [
        {
          "internalType": "uint256",
          "name": "",
          "type": "uint256"
        }
      ],
      "stateMutability": "view",
      "type": "function"
    },
    {
      "stateMutability": "payable",
      "type": "receive"
    }
  ],
  "bytecode": "0x6101806040523480156200001257600080fd5b5060405162006099380380620060998339810160408190526200003591620007c4565b8060328361546061c4e0674563918244f400006040518060400160405280601381526020017f5472757468416e63686f72476f7665726e6f7200000000000000000000000000815250806200008f6200014260201b60201c565b6200009c8260006200015d565b61012052620000ad8160016200015d565b61014052815160208084019190912060e052815190820120610100524660a052620000d762000196565b60805250503060c0526003620000ee828262000912565b50620000fc905083620001f2565b62000107826200025a565b620001128162000306565b5050506001600160a01b0316610160526200012d8162000348565b506200013981620003e5565b50505062000c7c565b6040805180820190915260018152603160f81b602082015290565b60006020835110156200017d57620001758362000450565b905062000190565b816200018a848262000912565b5060ff90505b92915050565b60e05161010051604051600092620001d7927f8b73c3c69bb8fe3d512ecc4cf759cc79239f7b179b0ffacaa9a75d522b39400f9246903090602001620009f5565b60405160208183030381529060405280519060200120905090565b6008546040517fc565b045403dc03c2eea82b81a0465edad9e2e7fc4d97e11421c209da93d7a9391620002329165ffffffffffff90911690849062000a6c565b60405180910390a16008805465ffffffffffff191665ffffffffffff92909216919091179055565b8063ffffffff166000036200029057600060405163f1cfbf0560e01b815260040162000287919062000a96565b60405180910390fd5b7f7e3f7f0708a84de9203036abaa450dccc85ad5ff52f78c170f3edb55cf5e8828600860069054906101000a900463ffffffff1682604051620002d592919062000ac5565b60405180910390a16008805463ffffffff90921666010000000000000263ffffffff60301b19909216919091179055565b7fccb45da8d5717e6c4544694297c4ba5cf151d455c9bb0ed4fc7a38411bc05461600754826040516200033b92919062000ae4565b60405180910390a1600755565b6064808211156200037257818160405163243e544560e01b81526004016200028792919062000ae4565b60006200037e62000496565b9050620003a36200038e620004b2565b620003998562000534565b600a91906200056a565b50507f0553476bf02ef2726e8ce5ced78d63e26e602e4a2257b1f559418e24b46339978184604051620003d892919062000ae4565b60405180910390a1505050565b600b546040517f08f74ea46ef7894f65eabfb5e6e695de773a000b47c529ab559178069b2264019162000426916001600160a01b0390911690849062000b03565b60405180910390a1600b80546001600160a01b0319166001600160a01b0392909216919091179055565b600080829050601f815111156200047e578260405163305a27a960e01b815260040162000287919062000b7d565b80516200048b8262000b9b565b179392505050565b90565b6000620004a4600a62000587565b6001600160d01b0316905090565b6000620004bf6101605190565b6001600160a01b03166391ddadf46040518163ffffffff1660e01b8152600401602060405180830381865afa9250505080156200051b575060408051601f3d908101601f19168201909252620005189181019062000bfb565b60015b6200052f576200052a620005d7565b905090565b919050565b60006001600160d01b03821115620005665760d0826040516306dfcc6560e41b81526004016200028792919062000c40565b5090565b6000806200057a858585620005e4565b915091505b935093915050565b80546000908015620005cd57620005b383620005a560018462000c66565b600091825260209091200190565b54660100000000000090046001600160d01b0316620005d0565b60005b9392505050565b60006200052a436200074d565b825460009081908015620006ee5760006200060687620005a560018562000c66565b805490915065ffffffffffff80821691660100000000000090046001600160d01b03169088168211156200064d57604051632520601d60e01b815260040160405180910390fd5b8765ffffffffffff168265ffffffffffff16036200068b57825465ffffffffffff1666010000000000006001600160d01b03891602178355620006df565b6040805180820190915265ffffffffffff808a1682526001600160d01b03808a1660208085019182528d54600181018f5560008f815291909120945191519092166601000000000000029216919091179101555b94508593506200057f92505050565b50506040805180820190915265ffffffffffff80851682526001600160d01b0380851660208085019182528854600181018a5560008a81529182209551925190931666010000000000000291909316179201919091559050816200057f565b600065ffffffffffff82111562000566576030826040516306dfcc6560e41b81526004016200028792919062000c40565b60006001600160a01b03821662000190565b600062000190826200077e565b620007a88162000790565b8114620007b457600080fd5b50565b805162000190816200079d565b60008060408385031215620007dc57620007dc600080fd5b6000620007ea8585620007b7565b9250506020620007fd85828601620007b7565b9150509250929050565b634e487b7160e01b600052604160045260246000fd5b634e487b7160e01b600052602260045260246000fd5b6002810460018216806200084857607f821691505b6020821081036200085d576200085d6200081d565b50919050565b600062000190620004938381565b6200087c8362000863565b815460001960089490940293841b1916921b91909117905550565b6000620008a681848462000871565b505050565b81811015620008ca57620008c160008262000897565b600101620008ab565b5050565b601f821115620008a6576000818152602090206020601f85010481016020851015620008f75750805b6200090b6020601f860104830182620008ab565b5050505050565b81516001600160401b038111156200092e576200092e62000807565b6200093a825462000833565b62000947828285620008ce565b6020601f8311600181146200097e5760008415620009655750858201515b600019600886021c1981166002860217865550620009da565b600085815260208120601f198616915b82811015620009b057888501518255602094850194600190920191016200098e565b86831015620009cd5784890151600019601f89166008021c191682555b6001600288020188555050505b505050505050565b805b82525050565b620009e4816200077e565b60a0810162000a058288620009e2565b62000a146020830187620009e2565b62000a236040830186620009e2565b62000a326060830185620009e2565b62000a416080830184620009ea565b9695505050505050565b6000620001906200049365ffffffffffff841681565b620009e48162000a4b565b6040810162000a7c828562000a61565b620005d0602083018462000a61565b620009e48162000863565b6020810162000190828462000a8b565b6000620001906200049363ffffffff841681565b620009e48162000aa6565b6040810162000ad5828562000aba565b620005d0602083018462000aba565b6040810162000af48285620009e2565b620005d06020830184620009e2565b6040810162000b138285620009ea565b620005d06020830184620009ea565b60005b8381101562000b3f57818101518382015260200162000b25565b50506000910152565b600062000b53825190565b80845260208401935062000b6c81856020860162000b22565b601f01601f19169290920192915050565b60208082528101620005d0818462000b48565b600062000190825190565b600062000ba6825190565b6020830162000bb58162000b90565b9250602082101562000bd85762000bd3600019836020036008021b90565b831692505b5050919050565b65ffffffffffff8116620007a8565b8051620001908162000bdf565b60006020828403121562000c125762000c12600080fd5b600062000c20848462000bee565b949350505050565b60ff1690565b620009e4816000620001908262000c28565b6040810162000af4828562000c2e565b634e487b7160e01b600052601160045260246000fd5b8181038181111562000190576200019062000c50565b60805160a05160c05160e0516101005161012051610140516101605161539b62000cfe60003960008181610ae901528181610ffb015281816117a3015281816125170152612794015260006124b3015260006124860152600061368a0152600061366901526000612dab01526000612dd501526000612dff015261539b6000f3fe6080604052600436106103385760003560e01c80637ecebe00116101b0578063bc197c81116100ec578063deaaa7cc11610095578063ece40cc11161006f578063ece40cc114610a7a578063f23a6e6114610a9a578063f8ce560a14610aba578063fc0c546a14610ada57600080fd5b8063deaaa7cc14610a06578063e540d01d14610a3a578063eb9019d414610a5a57600080fd5b8063c59057e4116100c6578063c59057e414610982578063d33219b4146109a2578063dd4e2ba5146109c057600080fd5b8063bc197c811461092f578063c01f9e371461094f578063c28bc2fa1461096f57600080fd5b806397c3d33411610159578063a890c91011610133578063a890c910146108a2578063a9a95294146108c2578063ab58fb8e146108e2578063b58131b01461091a57600080fd5b806397c3d334146108595780639a802a6d1461086d578063a7713a701461088d57600080fd5b80638e235add1161018a5780638e235add146107f75780638ff262e31461081757806391ddadf41461083757600080fd5b80637ecebe00146107695780637f8922351461079f57806384b0196e146107cf57600080fd5b8063438596321161027f5780635b8d0e0d1161022857806360c4247f1161020257806360c4247f146106e957806379051887146107095780637b3c71d3146107295780637d5e81e21461074957600080fd5b80635b8d0e0d1461069d5780635dfc2e4a146106bd5780635f398a14146106c957600080fd5b8063544ffc9c11610259578063544ffc9c146105ee57806354fd4d5014610637578063567813881461067d57600080fd5b8063438596321461056f578063452115d6146105b95780634bf5d7e9146105d957600080fd5b8063160cbed7116102e15780632fe3e261116102bb5780632fe3e261146104f95780633932abb11461052d5780633e4f49e61461054257600080fd5b8063160cbed71461048a5780632656227d146104aa5780632d63f693146104bd57600080fd5b806306fdde031161031257806306fdde03146103f8578063143489d01461041a578063150b7a021461045d57600080fd5b806301ffc9a71461037457806302a251a3146103aa57806306f3f9e6146103d857600080fd5b3661036f5730610346610b15565b6001600160a01b03161461036d57604051637485328f60e11b815260040160405180910390fd5b005b600080fd5b34801561038057600080fd5b5061039461038f366004613adc565b610b2e565b6040516103a19190613b07565b60405180910390f35b3480156103b657600080fd5b506008546601000000000000900463ffffffff165b6040516103a19190613b1b565b3480156103e457600080fd5b5061036d6103f3366004613b3a565b610bcb565b34801561040457600080fd5b5061040d610bdf565b6040516103a19190613bb1565b34801561042657600080fd5b50610450610435366004613b3a565b6000908152600460205260409020546001600160a01b031690565b6040516103a19190613bdc565b34801561046957600080fd5b5061047d610478366004613cec565b610c71565b6040516103a19190613d7b565b34801561049657600080fd5b506103cb6104a5366004613f33565b610cce565b6103cb6104b8366004613f33565b610db5565b3480156104c957600080fd5b506103cb6104d8366004613b3a565b600090815260046020526040902054600160a01b900465ffffffffffff1690565b34801561050557600080fd5b506103cb7f3e83946653575f9a39005e1545185629e92736b7528ab20ca3816f315424a81181565b34801561053957600080fd5b506103cb610f48565b34801561054e57600080fd5b5061056261055d366004613b3a565b610f5b565b6040516103a1919061401f565b34801561057b57600080fd5b5061039461058a36600461402d565b60008281526009602090815260408083206001600160a01b038516845260030190915290205460ff1692915050565b3480156105c557600080fd5b506103cb6105d4366004613f33565b610f66565b3480156105e557600080fd5b5061040d610ff7565b3480156105fa57600080fd5b50610628610609366004613b3a565b6000908152600960205260409020805460018201546002909201549092565b6040516103a19392919061406a565b34801561064357600080fd5b5060408051808201909152600181527f3100000000000000000000000000000000000000000000000000000000000000602082015261040d565b34801561068957600080fd5b506103cb6106983660046140a6565b6110b9565b3480156106a957600080fd5b506103cb6106b836600461412b565b6110da565b34801561036d57600080fd5b3480156106d557600080fd5b506103cb6106e436600461420c565b6111fd565b3480156106f557600080fd5b506103cb610704366004613b3a565b611254565b34801561071557600080fd5b5061036d6107243660046142c4565b6112e5565b34801561073557600080fd5b506103cb6107443660046142e5565b6112f6565b34801561075557600080fd5b506103cb610764366004614353565b61133e565b34801561077557600080fd5b506103cb6107843660046143ea565b6001600160a01b031660009081526002602052604090205490565b3480156107ab57600080fd5b506107bf6107ba366004613b3a565b61140d565b6040516103a1949392919061440b565b3480156107db57600080fd5b506107e46114bd565b6040516103a197969594939291906144ca565b34801561080357600080fd5b506103cb610812366004614546565b61151f565b34801561082357600080fd5b506103cb610832366004614581565b6116f9565b34801561084357600080fd5b5061084c61179f565b6040516103a191906145d6565b34801561086557600080fd5b5060646103cb565b34801561087957600080fd5b506103cb6108883660046145e4565b611827565b34801561089957600080fd5b506103cb61183e565b3480156108ae57600080fd5b5061036d6108bd36600461466e565b611858565b3480156108ce57600080fd5b506103946108dd366004613b3a565b611869565b3480156108ee57600080fd5b506103cb6108fd366004613b3a565b60009081526004602052604090206001015465ffffffffffff1690565b34801561092657600080fd5b506103cb611872565b34801561093b57600080fd5b5061047d61094a36600461468f565b61187d565b34801561095b57600080fd5b506103cb61096a366004613b3a565b6118da565b61036d61097d36600461473f565b61191d565b34801561098e57600080fd5b506103cb61099d366004613f33565b61199d565b3480156109ae57600080fd5b50600b546001600160a01b0316610450565b3480156109cc57600080fd5b506040805180820190915260208082527f737570706f72743d627261766f2671756f72756d3d666f722c6162737461696e9082015261040d565b348015610a1257600080fd5b506103cb7ff2aad550cf55f045cb27e9c559f9889fdfb6e6cdaa032301d6ea397784ae51d781565b348015610a4657600080fd5b5061036d610a5536600461478c565b6119d7565b348015610a6657600080fd5b506103cb610a753660046147ad565b6119e8565b348015610a8657600080fd5b5061036d610a95366004613b3a565b611a09565b348015610aa657600080fd5b5061047d610ab53660046147e0565b611a1a565b348015610ac657600080fd5b506103cb610ad5366004613b3a565b611a77565b348015610ae657600080fd5b507f00000000000000000000000000000000000000000000000000000000000000006040516103a1919061487c565b6000610b29600b546001600160a01b031690565b905090565b60006001600160e01b031982167f65455a86000000000000000000000000000000000000000000000000000000001480610b9157506001600160e01b031982167f4e2312e000000000000000000000000000000000000000000000000000000000145b80610bc557507f01ffc9a7000000000000000000000000000000000000000000000000000000006001600160e01b03198316145b92915050565b610bd3611a82565b610bdc81611b14565b50565b606060038054610bee906148a0565b80601f0160208091040260200160405190810160405280929190818152602001828054610c1a906148a0565b8015610c675780601f10610c3c57610100808354040283529160200191610c67565b820191906000526020600020905b815481529060010190602001808311610c4a57829003601f168201915b5050505050905090565b600030610c7c610b15565b6001600160a01b031614610ca357604051637485328f60e11b815260040160405180910390fd5b507f150b7a02000000000000000000000000000000000000000000000000000000005b949350505050565b600080610cdd8686868661199d565b9050610cf281610ced6004611bbd565b611be0565b506000610d028288888888611c1f565b905065ffffffffffff811615610d795760008281526004602052604090819020600101805465ffffffffffff191665ffffffffffff8416179055517f9a2e42fd6722813d69113e7d0079d3d940171428df7373df9c7f7617cfda289290610d6c90849084906148e9565b60405180910390a1610dab565b6040517f90884a4600000000000000000000000000000000000000000000000000000000815260040160405180910390fd5b5095945050505050565b600080610dc48686868661199d565b9050610de481610dd46005611bbd565b610dde6004611bbd565b17611be0565b50600081815260046020526040902080547fff00ffffffffffffffffffffffffffffffffffffffffffffffffffffffffffff16600160f01b17905530610e28610b15565b6001600160a01b031614610eb25760005b8651811015610eb057306001600160a01b0316878281518110610e5e57610e5e614904565b60200260200101516001600160a01b031603610ea857610ea8858281518110610e8957610e89614904565b6020026020010151805190602001206005611c2e90919063ffffffff16565b600101610e39565b505b610ebf8187878787611ca2565b30610ec8610b15565b6001600160a01b031614158015610efd57506005546fffffffffffffffffffffffffffffffff808216600160801b9092041614155b15610f085760006005555b7f712ae1383f79ac853f8d882153778e0260ef8f03b504e2866e0593e04d2b291f81604051610f379190613b1b565b60405180910390a195945050505050565b6000610b2960085465ffffffffffff1690565b6000610bc582611cb6565b600080610f758686868661199d565b9050610f8581610ced6000611bbd565b506000818152600460205260409020546001600160a01b03163314610fe157336040517f233d98e3000000000000000000000000000000000000000000000000000000008152600401610fd89190613bdc565b60405180910390fd5b610fed86868686611e2f565b9695505050505050565b60607f00000000000000000000000000000000000000000000000000000000000000006001600160a01b0316634bf5d7e96040518163ffffffff1660e01b8152600401600060405180830381865afa92505050801561107857506040513d6000823e601f3d908101601f191682016040526110759190810190614972565b60015b6110b4575060408051808201909152601d81527f6d6f64653d626c6f636b6e756d6265722666726f6d3d64656661756c74000000602082015290565b919050565b600080339050610cc684828560405180602001604052806000815250611e3d565b600080611186876111807f3e83946653575f9a39005e1545185629e92736b7528ab20ca3816f315424a8118c8c8c61112f8e6001600160a01b0316600090815260026020526040902080546001810190915590565b8d8d60405161113f9291906149c0565b60405180910390208c8051906020012060405160200161116597969594939291906149d6565b60405160208183030381529060405280519060200120611e60565b85611ea8565b9050806111a857866040516394ab6c0760e01b8152600401610fd89190613bdc565b6111ec89888a89898080601f0160208091040260200160405190810160405280939291908181526020018383808284376000920191909152508b9250611f1c915050565b9150505b979650505050505050565b565b60008033905061124787828888888080601f0160208091040260200160405190810160405280939291908181526020018383808284376000920191909152508a9250611f1c915050565b9150505b95945050505050565b600a80546000918290611268600184614a48565b8154811061127857611278614904565b6000918252602090912001805490915065ffffffffffff811690660100000000000090046001600160d01b03168582116112be576001600160d01b031695945050505050565b6112d26112ca87612013565b600a90612045565b6001600160d01b03169695505050505050565b6112ed611a82565b610bdc816120fd565b600080339050610fed86828787878080601f016020809104026020016040519081016040528093929190818152602001838380828437600092019190915250611e3d92505050565b60003361134b8184612163565b61138357806040517fd9b39557000000000000000000000000000000000000000000000000000000008152600401610fd89190613bdc565b600061138d611872565b905080156114005760006113bc8360016113a561179f565b6113af9190614a5b565b65ffffffffffff166119e8565b9050818110156113fe578281836040517fc242ee16000000000000000000000000000000000000000000000000000000008152600401610fd893929190614a7d565b505b6111f08787878786612215565b600d60205260009081526040902080548190611428906148a0565b80601f0160208091040260200160405190810160405280929190818152602001828054611454906148a0565b80156114a15780601f10611476576101008083540402835291602001916114a1565b820191906000526020600020905b81548152906001019060200180831161148457829003601f168201915b5050505050908060010154908060020154908060030154905084565b6000606080600080600060606114d161247f565b6114d96124ac565b604080516000808252602082019092527f0f000000000000000000000000000000000000000000000000000000000000009b939a50919850469750309650945092509050565b60408051600180825281830190925260009182919060208083019080368337019050509050308160008151811061155857611558614904565b6001600160a01b0392909216602092830291909101909101526040805160018082528183019092526000918160200160208202803683370190505090506000816000815181106115aa576115aa614904565b6020908102919091010152604080516001808252818301909252600091816020015b60608152602001906001900390816115cc579050506040805160048152602481019091526020810180517bffffffffffffffffffffffffffffffffffffffffffffffffffffffff167f5dfc2e4a00000000000000000000000000000000000000000000000000000000179052815191925090829060009061164f5761164f614904565b602002602001018190525060008560405160200161166d9190614aad565b6040516020818303038152906040529050600061168c8585858561133e565b604080516080810182528981526000602080830182905282840182905260608301829052848252600d9052919091208151929350909181906116ce9082614b79565b5060208201516001820155604082015160028201556060909101516003909101559695505050505050565b600080611762846111807ff2aad550cf55f045cb27e9c559f9889fdfb6e6cdaa032301d6ea397784ae51d789898961174e8b6001600160a01b0316600090815260026020526040902080546001810190915590565b604051602001611165959493929190614c3d565b90508061178457836040516394ab6c0760e01b8152600401610fd89190613bdc565b610fed86858760405180602001604052806000815250611e3d565b60007f00000000000000000000000000000000000000000000000000000000000000006001600160a01b03166391ddadf46040518163ffffffff1660e01b8152600401602060405180830381865afa92505050801561181b575060408051601f3d908101601f1916820190925261181891810190614c8a565b60015b6110b457610b296124d9565b60006118348484846124e4565b90505b9392505050565b600061184a600a61258f565b6001600160d01b0316905090565b611860611a82565b610bdc816125cb565b60006001610bc5565b6000610b2960075490565b600030611888610b15565b6001600160a01b0316146118af57604051637485328f60e11b815260040160405180910390fd5b507fbc197c810000000000000000000000000000000000000000000000000000000095945050505050565b60008181526004602052604081205461190f90600160d01b810463ffffffff1690600160a01b900465ffffffffffff16614cab565b65ffffffffffff1692915050565b611925611a82565b600080856001600160a01b03168585856040516119439291906149c0565b60006040518083038185875af1925050503d8060008114611980576040519150601f19603f3d011682016040523d82523d6000602084013e611985565b606091505b50915091506119948282612641565b50505050505050565b6000848484846040516020016119b69493929190614d89565b60408051601f19818403018152919052805160209091012095945050505050565b6119df611a82565b610bdc8161265d565b60006118378383611a0460408051602081019091526000815290565b6124e4565b611a11611a82565b610bdc81612717565b600030611a25610b15565b6001600160a01b031614611a4c57604051637485328f60e11b815260040160405180910390fd5b507ff23a6e610000000000000000000000000000000000000000000000000000000095945050505050565b6000610bc582612757565b33611a8b610b15565b6001600160a01b031614611acd57336040517f47096e47000000000000000000000000000000000000000000000000000000008152600401610fd89190613bdc565b30611ad6610b15565b6001600160a01b0316146111fb5760008036604051611af69291906149c0565b604051809103902090505b80611b0c600561281e565b03611b015750565b606480821115611b545781816040517f243e5445000000000000000000000000000000000000000000000000000000008152600401610fd8929190614dd1565b6000611b5e61183e565b9050611b7d611b6b61179f565b611b74856128ae565b600a91906128dd565b50507f0553476bf02ef2726e8ce5ced78d63e26e602e4a2257b1f559418e24b46339978184604051611bb0929190614dd1565b60405180910390a1505050565b6000816007811115611bd157611bd1613fdb565b600160ff919091161b92915050565b600080611bec84610f5b565b9050600083611bfa83611bbd565b1603611837578381846040516331b75e4d60e01b8152600401610fd893929190614dec565b6000610fed86868686866128f8565b81546fffffffffffffffffffffffffffffffff600160801b820481169181166001830190911603611c6357611c636041612ad5565b6fffffffffffffffffffffffffffffffff808216600090815260018086016020526040909120939093558354919092018216600160801b029116179055565b611caf8585858585612ae7565b5050505050565b600080611cc283612b7d565b90506005816007811115611cd857611cd8613fdb565b14611ce35792915050565b6000838152600c60205260409081902054600b5491517f584b153e00000000000000000000000000000000000000000000000000000000815290916001600160a01b03169063584b153e90611d3c908490600401613b1b565b602060405180830381865afa158015611d59573d6000803e3d6000fd5b505050506040513d601f19601f82011682018060405250810190611d7d9190614e1a565b15611d8c575060059392505050565b600b546040517f2ab0f5290000000000000000000000000000000000000000000000000000000081526001600160a01b0390911690632ab0f52990611dd5908490600401613b1b565b602060405180830381865afa158015611df2573d6000803e3d6000fd5b505050506040513d601f19601f82011682018060405250810190611e169190614e1a565b15611e25575060079392505050565b5060029392505050565b600061124b85858585612ce2565b600061124b85858585611e5b60408051602081019091526000815290565b611f1c565b6000610bc5611e6d612d9e565b836040517f19010000000000000000000000000000000000000000000000000000000000008152600281019290925260228201526042902090565b6000836001600160a01b03163b600003611f0a57600080611ec98585612e29565b5090925090506000816003811115611ee357611ee3613fdb565b148015611f015750856001600160a01b0316826001600160a01b0316145b92505050611837565b611f15848484612e76565b9050611837565b6000611f2c86610ced6001611bbd565b50600086815260046020526040812054611f57908790600160a01b900465ffffffffffff16856124e4565b90506000611f688888888588612f66565b90508351600003611fbf57866001600160a01b03167fb8e138887d0aa13bab447e82de9d5c1777041ecd21ca36ba824ff1e6c07ddda489888489604051611fb29493929190614e3b565b60405180910390a2611247565b866001600160a01b03167fe2babfbac5889a709b63bb7f598b324e08bc5a4fb9ec647fb3cbc9ec07eb87128988848989604051612000959493929190614e75565b60405180910390a2979650505050505050565b600065ffffffffffff821115612041576030826040516306dfcc6560e41b8152600401610fd8929190614ed7565b5090565b8154600090818160058111156120a457600061206084613017565b61206a9085614a48565b60008881526020902090915081015465ffffffffffff9081169087161015612094578091506120a2565b61209f816001614ee5565b92505b505b60006120b287878585613170565b905080156120f0576120d7876120c9600184614a48565b600091825260209091200190565b54660100000000000090046001600160d01b03166111f0565b6000979650505050505050565b6008546040517fc565b045403dc03c2eea82b81a0465edad9e2e7fc4d97e11421c209da93d7a939161213b9165ffffffffffff909116908490614ef8565b60405180910390a16008805465ffffffffffff191665ffffffffffff92909216919091179055565b8051600090603481101561217b576001915050610bc5565b60131981840101517fffffffffffffffffffff0000000000000000000000000000000000000000000081167f2370726f706f7365723d00000000000000000000000000000000000000000000146121d757600192505050610bc5565b6000806121e886602a8603866131d2565b915091508115806111f05750866001600160a01b0316816001600160a01b03161494505050505092915050565b600061222a868686868051906020012061199d565b90508451865114158061223f57508351865114155b8061224957508551155b15612289578551845186516040517f447b05d0000000000000000000000000000000000000000000000000000000008152600401610fd89392919061406a565b600081815260046020526040902054600160a01b900465ffffffffffff16156122d457806122b682610f5b565b6040516331b75e4d60e01b8152610fd8929190600090600401614dec565b60006122de610f48565b6122e661179f565b65ffffffffffff166122f89190614ee5565b9050600061231660085463ffffffff66010000000000009091041690565b6000848152600460205260409020805473ffffffffffffffffffffffffffffffffffffffff19166001600160a01b03871617815590915061235683612013565b815465ffffffffffff91909116600160a01b027fffffffffffff000000000000ffffffffffffffffffffffffffffffffffffffff90911617815561239982613299565b815463ffffffff91909116600160d01b027fffff00000000ffffffffffffffffffffffffffffffffffffffffffffffffffff90911617815588517f7d84a6263ae0d98d3329bd7b46bb4e8d6f98cd35a7adb45c274c8b7fd5ebd5e090859087908c908c9067ffffffffffffffff81111561241557612415613bfe565b60405190808252806020026020018201604052801561244857816020015b60608152602001906001900390816124335790505b508c896124558a82614ee5565b8e60405161246b99989796959493929190614f5f565b60405180910390a150505095945050505050565b6060610b297f000000000000000000000000000000000000000000000000000000000000000060006132c5565b6060610b297f000000000000000000000000000000000000000000000000000000000000000060016132c5565b6000610b2943612013565b6040517f3a46b1a80000000000000000000000000000000000000000000000000000000081526000906001600160a01b037f00000000000000000000000000000000000000000000000000000000000000001690633a46b1a89061254e9087908790600401615007565b602060405180830381865afa15801561256b573d6000803e3d6000fd5b505050506040513d601f19601f820116820180604052508101906118349190615020565b805460009080156125c2576125a9836120c9600184614a48565b54660100000000000090046001600160d01b0316611837565b60009392505050565b600b546040517f08f74ea46ef7894f65eabfb5e6e695de773a000b47c529ab559178069b2264019161260a916001600160a01b03909116908490615041565b60405180910390a1600b805473ffffffffffffffffffffffffffffffffffffffff19166001600160a01b0392909216919091179055565b6060826126565761265182613370565b610bc5565b5080610bc5565b8063ffffffff166000036126a05760006040517ff1cfbf05000000000000000000000000000000000000000000000000000000008152600401610fd89190615065565b7f7e3f7f0708a84de9203036abaa450dccc85ad5ff52f78c170f3edb55cf5e8828600860069054906101000a900463ffffffff16826040516126e392919061508e565b60405180910390a16008805463ffffffff90921666010000000000000269ffffffff00000000000019909216919091179055565b7fccb45da8d5717e6c4544694297c4ba5cf151d455c9bb0ed4fc7a38411bc054616007548260405161274a929190614dd1565b60405180910390a1600755565b6000606461276483611254565b6040517f8e539e8c0000000000000000000000000000000000000000000000000000000081526001600160a01b037f00000000000000000000000000000000000000000000000000000000000000001690638e539e8c906127c9908790600401613b1b565b602060405180830381865afa1580156127e6573d6000803e3d6000fd5b505050506040513d601f19601f8201168201806040525081019061280a9190615020565b61281491906150a9565b610bc591906150de565b80546000906fffffffffffffffffffffffffffffffff80821691600160801b9004168103612850576128506031612ad5565b6fffffffffffffffffffffffffffffffff8181166000908152600185810160205260408220805492905585547fffffffffffffffffffffffffffffffff00000000000000000000000000000000169301909116919091179092555090565b60006001600160d01b038211156120415760d0826040516306dfcc6560e41b8152600401610fd8929190614ed7565b6000806128eb8585856133b2565b915091505b935093915050565b600080600b60009054906101000a90046001600160a01b03166001600160a01b031663f27a0c926040518163ffffffff1660e01b8152600401602060405180830381865afa15801561294e573d6000803e3d6000fd5b505050506040513d601f19601f820116820180604052508101906129729190615020565b905060003060601b6bffffffffffffffffffffffff19168418600b546040517fb1c5f4270000000000000000000000000000000000000000000000000000000081529192506001600160a01b03169063b1c5f427906129de908a908a908a9060009088906004016150f2565b602060405180830381865afa1580156129fb573d6000803e3d6000fd5b505050506040513d601f19601f82011682018060405250810190612a1f9190615020565b6000898152600c602052604080822092909255600b5491517f8f2a0bb00000000000000000000000000000000000000000000000000000000081526001600160a01b0390921691638f2a0bb091612a83918b918b918b919088908a9060040161513a565b600060405180830381600087803b158015612a9d57600080fd5b505af1158015612ab1573d6000803e3d6000fd5b50505050612ac98242612ac49190614ee5565b612013565b98975050505050505050565b634e487b71600052806020526024601cfd5b600b546001600160a01b031663e38335e53486868660003060601b6bffffffffffffffffffffffff191688186040518763ffffffff1660e01b8152600401612b339594939291906150f2565b6000604051808303818588803b158015612b4c57600080fd5b505af1158015612b60573d6000803e3d6000fd5b50505060009687525050600c602052505060408320929092555050565b6000818152600460205260408120805460ff600160f01b8204811691600160f81b9004168115612bb257506007949350505050565b8015612bc357506002949350505050565b600085815260046020526040812054600160a01b900465ffffffffffff16905080600003612c1f57856040517f6ad06075000000000000000000000000000000000000000000000000000000008152600401610fd89190613b1b565b6000612c2961179f565b65ffffffffffff169050808210612c47575060009695505050505050565b6000612c52886118da565b9050818110612c6957506001979650505050505050565b612c728861352b565b1580612c9257506000888152600960205260409020805460019091015411155b15612ca557506003979650505050505050565b60008881526004602052604090206001015465ffffffffffff16600003612cd457506004979650505050505050565b506005979650505050505050565b600080612cf18686868661357d565b6000818152600c60205260409020549091508015610dab57600b546040517fc4d252f50000000000000000000000000000000000000000000000000000000081526001600160a01b039091169063c4d252f590612d52908490600401613b1b565b600060405180830381600087803b158015612d6c57600080fd5b505af1158015612d80573d6000803e3d6000fd5b5050506000838152600c602052604081205550509050949350505050565b6000306001600160a01b037f000000000000000000000000000000000000000000000000000000000000000016148015612df757507f000000000000000000000000000000000000000000000000000000000000000046145b15612e2157507f000000000000000000000000000000000000000000000000000000000000000090565b610b29613644565b60008060008351604103612e635760208401516040850151606086015160001a612e55888285856136da565b955095509550505050612e6f565b50508151600091506002905b9250925092565b6000806000856001600160a01b03168585604051602401612e9892919061519c565b60408051601f198184030181529181526020820180517bffffffffffffffffffffffffffffffffffffffffffffffffffffffff16630b135d3f60e11b17905251612ee291906151bc565b600060405180830381855afa9150503d8060008114612f1d576040519150601f19603f3d011682016040523d82523d6000602084013e612f22565b606091505b5091509150818015612f3657506020815110155b8015610fed57508051630b135d3f60e11b90612f5b9083016020908101908401615020565b149695505050505050565b6000612f75868686868661379c565b508360ff16600003612fad576000868152600d602052604081206002018054859290612fa2908490614ee5565b9091555061300b9050565b8360ff16600103612fd9576000868152600d602052604081206001018054859290612fa2908490614ee5565b8360ff1660020361300b576000868152600d602052604081206003018054859290613005908490614ee5565b90915550505b50600095945050505050565b600060018211613025575090565b816001600160801b821061303e5760809190911c9060401b5b6801000000000000000082106130595760409190911c9060201b5b64010000000082106130705760209190911c9060101b5b6201000082106130855760109190911c9060081b5b61010082106130995760089190911c9060041b5b601082106130ac5760049190911c9060021b5b600482106130b85760011b5b600302600190811c908185816130d0576130d06150c8565b048201901c905060018185816130e8576130e86150c8565b048201901c90506001818581613100576131006150c8565b048201901c90506001818581613118576131186150c8565b048201901c90506001818581613130576131306150c8565b048201901c90506001818581613148576131486150c8565b048201901c9050613167818581613161576131616150c8565b04821190565b90039392505050565b60005b818310156131ca57600061318784846138c8565b60008781526020902090915065ffffffffffff86169082015465ffffffffffff1611156131b6578092506131c4565b6131c1816001614ee5565b93505b50613173565b509392505050565b60008084518311806131e357508284115b156131f3575060009050806128f0565b6000613200856001614ee5565b84118015613240575061060f60f31b61321c8787016020015190565b7fffff00000000000000000000000000000000000000000000000000000000000016145b9050600061325182151560026150a9565b61325c906028614ee5565b9050806132698787614a48565b0361328b5760008061327c8989896138e3565b90965094506128f09350505050565b6000809350935050506128f0565b600063ffffffff821115612041576020826040516306dfcc6560e41b8152600401610fd8929190614ed7565b606060ff83146132df576132d8836139c1565b9050610bc5565b8180546132eb906148a0565b80601f0160208091040260200160405190810160405280929190818152602001828054613317906148a0565b80156133645780601f1061333957610100808354040283529160200191613364565b820191906000526020600020905b81548152906001019060200180831161334757829003601f168201915b50505050509050610bc5565b8051156133805780518082602001fd5b6040517fd6bda27500000000000000000000000000000000000000000000000000000000815260040160405180910390fd5b8254600090819080156134cd5760006133d0876120c9600185614a48565b805490915065ffffffffffff80821691660100000000000090046001600160d01b031690881682111561342f576040517f2520601d00000000000000000000000000000000000000000000000000000000815260040160405180910390fd5b8765ffffffffffff168265ffffffffffff160361346b57825465ffffffffffff1666010000000000006001600160d01b038916021783556134bf565b6040805180820190915265ffffffffffff808a1682526001600160d01b03808a1660208085019182528d54600181018f5560008f815291909120945191519092166601000000000000029216919091179101555b94508593506128f092505050565b50506040805180820190915265ffffffffffff80851682526001600160d01b0380851660208085019182528854600181018a5560008a81529182209551925190931666010000000000000291909316179201919091559050816128f0565b60008181526009602052604081206002810154600182015461354d9190614ee5565b60008481526004602052604090205461357490600160a01b900465ffffffffffff16611a77565b11159392505050565b60008061358c8686868661199d565b90506135da8161359c6007611bbd565b6135a66006611bbd565b6135b06002611bbd565b60016135bd6007826151c8565b6135c89060026152f3565b6135d29190614a48565b181818611be0565b506000818152600460205260409081902080547effffffffffffffffffffffffffffffffffffffffffffffffffffffffffffff16600160f81b179055517f789cf55be980739dad1d0699b93b58e806b51c9d96619bfa8fe0a28abaa7b30c90610f37908390613b1b565b60007f8b73c3c69bb8fe3d512ecc4cf759cc79239f7b179b0ffacaa9a75d522b39400f7f00000000000000000000000000000000000000000000000000000000000000007f000000000000000000000000000000000000000000000000000000000000000046306040516020016136bf959493929190615308565b60405160208183030381529060405280519060200120905090565b600080807f7fffffffffffffffffffffffffffffff5d576e7357a4501ddfe92f46681b20a08411156137155750600091506003905082613792565b60006001888888886040516000815260200160405260405161373a949392919061534a565b6020604051602081039080840390855afa15801561375c573d6000803e3d6000fd5b5050604051601f1901519150506001600160a01b03811661378857506000925060019150829050613792565b9250600091508190505b9450945094915050565b60008581526009602090815260408083206001600160a01b03881684526003810190925282205460ff16156137ff57856040517f71c6af49000000000000000000000000000000000000000000000000000000008152600401610fd89190613bdc565b6001600160a01b03861660009081526003820160205260409020805460ff1916600117905560ff851661384b57838160000160008282546138409190614ee5565b909155506138bd9050565b60001960ff86160161386b57838160010160008282546138409190614ee5565b60011960ff86160161388b57838160020160008282546138409190614ee5565b6040517f06b337c200000000000000000000000000000000000000000000000000000000815260040160405180910390fd5b509195945050505050565b60006138d760028484186150de565b61183790848416614ee5565b60008084816138f3866001614ee5565b85118015613933575061060f60f31b61390f8388016020015190565b7fffff00000000000000000000000000000000000000000000000000000000000016145b9050600061394482151560026150a9565b9050600080613953838a614ee5565b90505b878110156139b05760006139756139708784016020015190565b613a00565b9050600f8160ff16111561399557600080975097505050505050506128f0565b6139a06010846150a9565b60ff909116019150600101613956565b506001999098509650505050505050565b606060006139ce83613a79565b604080516020808252818301909252919250600091906020820181803683375050509182525060208101929092525090565b600060f882901c602f81118015613a1a5750603a8160ff16105b15613a2857602f1901610bc5565b60608160ff16118015613a3e575060678160ff16105b15613a4c5760561901610bc5565b60408160ff16118015613a62575060478160ff16105b15613a705760361901610bc5565b5060ff92915050565b600060ff8216601f811115610bc5576040517fb3512b0c00000000000000000000000000000000000000000000000000000000815260040160405180910390fd5b6001600160e01b031981165b8114610bdc57600080fd5b8035610bc581613aba565b600060208284031215613af157613af1600080fd5b6000610cc68484613ad1565b8015155b82525050565b60208101610bc58284613afd565b80613b01565b60208101610bc58284613b15565b80613ac6565b8035610bc581613b29565b600060208284031215613b4f57613b4f600080fd5b6000610cc68484613b2f565b60005b83811015613b76578181015183820152602001613b5e565b50506000910152565b6000613b89825190565b808452602084019350613ba0818560208601613b5b565b601f01601f19169290920192915050565b602080825281016118378184613b7f565b60006001600160a01b038216610bc5565b613b0181613bc2565b60208101610bc58284613bd3565b613ac681613bc2565b8035610bc581613bea565b634e487b7160e01b600052604160045260246000fd5b601f19601f830116810181811067ffffffffffffffff82111715613c3a57613c3a613bfe565b6040525050565b6000613c4c60405190565b90506110b48282613c14565b600067ffffffffffffffff821115613c7257613c72613bfe565b601f19601f83011660200192915050565b82818337506000910152565b6000613ca2613c9d84613c58565b613c41565b905082815260208101848484011115613cbd57613cbd600080fd5b6131ca848285613c83565b600082601f830112613cdc57613cdc600080fd5b8135610cc6848260208601613c8f565b60008060008060808587031215613d0557613d05600080fd5b6000613d118787613bf3565b9450506020613d2287828801613bf3565b9350506040613d3387828801613b2f565b925050606085013567ffffffffffffffff811115613d5357613d53600080fd5b613d5f87828801613cc8565b91505092959194509250565b6001600160e01b03198116613b01565b60208101610bc58284613d6b565b600067ffffffffffffffff821115613da357613da3613bfe565b5060209081020190565b6000613dbb613c9d84613d89565b83815290506020808201908402830185811115613dda57613dda600080fd5b835b81811015613dfe5780613def8882613bf3565b84525060209283019201613ddc565b5050509392505050565b600082601f830112613e1c57613e1c600080fd5b8135610cc6848260208601613dad565b6000613e3a613c9d84613d89565b83815290506020808201908402830185811115613e5957613e59600080fd5b835b81811015613dfe5780613e6e8882613b2f565b84525060209283019201613e5b565b600082601f830112613e9157613e91600080fd5b8135610cc6848260208601613e2c565b6000613eaf613c9d84613d89565b83815290506020808201908402830185811115613ece57613ece600080fd5b835b81811015613dfe57803567ffffffffffffffff811115613ef257613ef2600080fd5b808601613eff8982613cc8565b8552505060209283019201613ed0565b600082601f830112613f2357613f23600080fd5b8135610cc6848260208601613ea1565b60008060008060808587031215613f4c57613f4c600080fd5b843567ffffffffffffffff811115613f6657613f66600080fd5b613f7287828801613e08565b945050602085013567ffffffffffffffff811115613f9257613f92600080fd5b613f9e87828801613e7d565b935050604085013567ffffffffffffffff811115613fbe57613fbe600080fd5b613fca87828801613f0f565b9250506060613d5f87828801613b2f565b634e487b7160e01b600052602160045260246000fd5b60088110610bdc57610bdc613fdb565b806110b481613ff1565b6000610bc582614001565b613b018161400b565b60208101610bc58284614016565b6000806040838503121561404357614043600080fd5b600061404f8585613b2f565b925050602061406085828601613bf3565b9150509250929050565b606081016140788286613b15565b6140856020830185613b15565b610cc66040830184613b15565b60ff8116613ac6565b8035610bc581614092565b600080604083850312156140bc576140bc600080fd5b60006140c88585613b2f565b92505060206140608582860161409b565b60008083601f8401126140ee576140ee600080fd5b50813567ffffffffffffffff81111561410957614109600080fd5b60208301915083600182028301111561412457614124600080fd5b9250929050565b600080600080600080600060c0888a03121561414957614149600080fd5b60006141558a8a613b2f565b97505060206141668a828b0161409b565b96505060406141778a828b01613bf3565b955050606088013567ffffffffffffffff81111561419757614197600080fd5b6141a38a828b016140d9565b9450945050608088013567ffffffffffffffff8111156141c5576141c5600080fd5b6141d18a828b01613cc8565b92505060a088013567ffffffffffffffff8111156141f1576141f1600080fd5b6141fd8a828b01613cc8565b91505092959891949750929550565b60008060008060006080868803121561422757614227600080fd5b60006142338888613b2f565b95505060206142448882890161409b565b945050604086013567ffffffffffffffff81111561426457614264600080fd5b614270888289016140d9565b9350935050606086013567ffffffffffffffff81111561429257614292600080fd5b61429e88828901613cc8565b9150509295509295909350565b65ffffffffffff8116613ac6565b8035610bc5816142ab565b6000602082840312156142d9576142d9600080fd5b6000610cc684846142b9565b600080600080606085870312156142fe576142fe600080fd5b600061430a8787613b2f565b945050602061431b8782880161409b565b935050604085013567ffffffffffffffff81111561433b5761433b600080fd5b614347878288016140d9565b95989497509550505050565b6000806000806080858703121561436c5761436c600080fd5b843567ffffffffffffffff81111561438657614386600080fd5b61439287828801613e08565b945050602085013567ffffffffffffffff8111156143b2576143b2600080fd5b6143be87828801613e7d565b935050604085013567ffffffffffffffff8111156143de576143de600080fd5b613d3387828801613f0f565b6000602082840312156143ff576143ff600080fd5b6000610cc68484613bf3565b6080808252810161441c8187613b7f565b905061442b6020830186613b15565b6144386040830185613b15565b61124b6060830184613b15565b7fff000000000000000000000000000000000000000000000000000000000000008116613b01565b60006144798383613b15565b505060200190565b600061448b825190565b80845260209384019383018060005b838110156144bf5781516144ae888261446d565b97506020830192505060010161449a565b509495945050505050565b60e081016144d8828a614445565b81810360208301526144ea8189613b7f565b905081810360408301526144fe8188613b7f565b905061450d6060830187613b15565b61451a6080830186613bd3565b61452760a0830185613b15565b81810360c08301526145398184614481565b9998505050505050505050565b60006020828403121561455b5761455b600080fd5b813567ffffffffffffffff81111561457557614575600080fd5b610cc684828501613cc8565b6000806000806080858703121561459a5761459a600080fd5b60006145a68787613b2f565b94505060206145b78782880161409b565b9350506040613d3387828801613bf3565b65ffffffffffff8116613b01565b60208101610bc582846145c8565b6000806000606084860312156145fc576145fc600080fd5b60006146088686613bf3565b935050602061461986828701613b2f565b925050604084013567ffffffffffffffff81111561463957614639600080fd5b61464586828701613cc8565b9150509250925092565b6000610bc582613bc2565b613ac68161464f565b8035610bc58161465a565b60006020828403121561468357614683600080fd5b6000610cc68484614663565b600080600080600060a086880312156146aa576146aa600080fd5b60006146b68888613bf3565b95505060206146c788828901613bf3565b945050604086013567ffffffffffffffff8111156146e7576146e7600080fd5b6146f388828901613e7d565b935050606086013567ffffffffffffffff81111561471357614713600080fd5b61471f88828901613e7d565b925050608086013567ffffffffffffffff81111561429257614292600080fd5b6000806000806060858703121561475857614758600080fd5b60006147648787613bf3565b945050602061431b87828801613b2f565b63ffffffff8116613ac6565b8035610bc581614775565b6000602082840312156147a1576147a1600080fd5b6000610cc68484614781565b600080604083850312156147c3576147c3600080fd5b60006147cf8585613bf3565b925050602061406085828601613b2f565b600080600080600060a086880312156147fb576147fb600080fd5b60006148078888613bf3565b955050602061481888828901613bf3565b945050604061482988828901613b2f565b935050606061471f88828901613b2f565b6000610bc56001600160a01b038316614851565b90565b6001600160a01b031690565b6000610bc58261483a565b6000610bc58261485d565b613b0181614868565b60208101610bc58284614873565b634e487b7160e01b600052602260045260246000fd5b6002810460018216806148b457607f821691505b6020821081036148c6576148c661488a565b50919050565b6000610bc561484e65ffffffffffff841681565b613b01816148cc565b604081016148f78285613b15565b61183760208301846148e0565b634e487b7160e01b600052603260045260246000fd5b6000614928613c9d84613c58565b90508281526020810184848401111561494357614943600080fd5b6131ca848285613b5b565b600082601f83011261496257614962600080fd5b8151610cc684826020860161491a565b60006020828403121561498757614987600080fd5b815167ffffffffffffffff8111156149a1576149a1600080fd5b610cc68482850161494e565b60006149ba838584613c83565b50500190565b6000610cc68284866149ad565b60ff8116613b01565b60e081016149e4828a613b15565b6149f16020830189613b15565b6149fe60408301886149cd565b614a0b6060830187613bd3565b614a186080830186613b15565b614a2560a0830185613b15565b612ac960c0830184613b15565b634e487b7160e01b600052601160045260246000fd5b81810381811115610bc557610bc5614a32565b65ffffffffffff918216919081169082820390811115610bc557610bc5614a32565b606081016140788286613bd3565b6000614a95825190565b614aa3818560208601613b5b565b9290920192915050565b7f50726f706f73616c20666f7220547769747465722068616e646c653a200000008152601d0160006118378284614a8b565b6000610bc561484e8381565b614af483614adf565b815460001960089490940293841b1916921b91909117905550565b6000614b1c818484614aeb565b505050565b81811015614b3c57614b34600082614b0f565b600101614b21565b5050565b601f821115614b1c576000818152602090206020601f85010481016020851015614b675750805b611caf6020601f860104830182614b21565b815167ffffffffffffffff811115614b9357614b93613bfe565b614b9d82546148a0565b614ba8828285614b40565b6020601f831160018114614bdc5760008415614bc45750858201515b600019600886021c1981166002860217865550614c35565b600085815260208120601f198616915b82811015614c0c5788850151825560209485019460019092019101614bec565b86831015614c285784890151600019601f89166008021c191682555b6001600288020188555050505b505050505050565b60a08101614c4b8288613b15565b614c586020830187613b15565b614c6560408301866149cd565b614c726060830185613bd3565b610fed6080830184613b15565b8051610bc5816142ab565b600060208284031215614c9f57614c9f600080fd5b6000610cc68484614c7f565b65ffffffffffff918216919081169082820190811115610bc557610bc5614a32565b60006144798383613bd3565b6000614ce3825190565b80845260209384019383018060005b838110156144bf578151614d068882614ccd565b975060208301925050600101614cf2565b60006118378383613b7f565b6000614d2d825190565b80845260208401935083602082028501614d478560200190565b8060005b85811015614d7c5784840389528151614d648582614d17565b94506020830160209a909a0199925050600101614d4b565b5091979650505050505050565b60808082528101614d9a8187614cd9565b90508181036020830152614dae8186614481565b90508181036040830152614dc28185614d23565b905061124b6060830184613b15565b60408101614ddf8285613b15565b6118376020830184613b15565b60608101614dfa8286613b15565b6140856020830185614016565b801515613ac6565b8051610bc581614e07565b600060208284031215614e2f57614e2f600080fd5b6000610cc68484614e0f565b60808101614e498287613b15565b614e5660208301866149cd565b614e636040830185613b15565b8181036060830152610fed8184613b7f565b60a08101614e838288613b15565b614e9060208301876149cd565b614e9d6040830186613b15565b8181036060830152614eaf8185613b7f565b905081810360808301526111f08184613b7f565b600060ff8216610bc5565b613b0181614ec3565b60408101614ddf8285614ece565b80820180821115610bc557610bc5614a32565b604081016148f782856148e0565b6000614f10825190565b80845260208401935083602082028501614f2a8560200190565b8060005b85811015614d7c5784840389528151614f478582614d17565b94506020830160209a909a0199925050600101614f2e565b6101208101614f6e828c613b15565b614f7b602083018b613bd3565b8181036040830152614f8d818a614cd9565b90508181036060830152614fa18189614481565b90508181036080830152614fb58188614f06565b905081810360a0830152614fc98187614d23565b9050614fd860c0830186613b15565b614fe560e0830185613b15565b818103610100830152614ff88184613b7f565b9b9a5050505050505050505050565b60408101614ddf8285613bd3565b8051610bc581613b29565b60006020828403121561503557615035600080fd5b6000610cc68484615015565b6040810161504f8285613bd3565b6118376020830184613bd3565b613b0181614adf565b60208101610bc5828461505c565b6000610bc561484e63ffffffff841681565b613b0181615073565b6040810161509c8285615085565b6118376020830184615085565b8181028082158382048514176150c1576150c1614a32565b5092915050565b634e487b7160e01b600052601260045260246000fd5b6000826150ed576150ed6150c8565b500490565b60a080825281016151038188614cd9565b905081810360208301526151178187614481565b9050818103604083015261512b8186614d23565b9050614c72606083018561505c565b60c0808252810161514b8189614cd9565b9050818103602083015261515f8188614481565b905081810360408301526151738187614d23565b9050615182606083018661505c565b61518f6080830185613b15565b6111f060a0830184613b15565b604081016151aa8285613b15565b81810360208301526118348184613b7f565b60006118378284614a8b565b60ff918216919081169082820190811115610bc557610bc5614a32565b80825b60018511156152245780860481111561520357615203614a32565b600185161561521157908102905b800261521d8560011c90565b94506151e8565b94509492505050565b60008261523c57506001611837565b8161524957506000611837565b816001811461525f576002811461526957615296565b6001915050611837565b60ff84111561527a5761527a614a32565b8360020a91508482111561529057615290614a32565b50611837565b5060208310610133831016604e8410600b84101617156152c9575081810a838111156152c4576152c4614a32565b611837565b6152d684848460016151e5565b925090508184048111156152ec576152ec614a32565b0292915050565b600060ff83169250611837600019848461522d565b60a081016153168288613b15565b6153236020830187613b15565b6153306040830186613b15565b61533d6060830185613b15565b610fed6080830184613bd3565b608081016153588287613b15565b61442b60208301866149cd56fea26469706673582212202c6bf370faf44969a926a6bf4eaf119a0f54097c3f75af41ed1c7cee2e0844c864736f6c63430008170033",
  "linkReferences": {},
  "deployedLinkReferences": {}
}