{
  "_format": "hh-sol-artifact-1",
  "contractName": "CompositeSentimentConsumer",
  "sourceName": "contracts/CompositeSentimentConsumer.sol",
  "abi": [
    {
      "inputs": [
        {
          "internalType": "contract ITwitterFTSO",
          "name": "_twitterOracle",
          "type": "address"
        }
      ],
      "stateMutability": "nonpayable",
      "type": "constructor"
    },
    {
      "anonymous": false,
      "inputs": [
        {
          "indexed": false,
          "internalType": "uint256",
          "name": "tweetScore",
          "type": "uint256"
        },
        {
          "indexed": false,
          "internalType": "uint256",
          "name": "macroScore",
          "type": "uint256"
        },
        {
          "indexed": false,
          "internalType": "uint256",
          "name": "composite",
          "type": "uint256"
        }
      ],
      "name": "CompositeUpdated",
      "type": "event"
    },
    {
      "inputs": [],
      "name": "lastComposite",
      "outputs": [
        {
          "internalType": "uint256",
          "name": "",
          "type": "uint256"
        }
      ],
      "stateMutability": "view",
      "type": "function"
    },
    {
      "inputs": [],
      "name": "twitterOracle",
      "outputs": [
        {
          "internalType": "contract ITwitterFTSO",
          "name": "",
          "type": "address"
        }
      ],
      "stateMutability": "view",
      "type": "function"
    },
    {
      "inputs": [
        {
          "components": [
            {
              "internalType": "bytes32[]",
              "name": "merkleProof",
              "type": "bytes32[]"
            },
            {
              "components": [
                {
                  "internalType": "bytes32",
                  "name": "attestationType",
                  "type": "bytes32"
                },
                {
                  "internalType": "bytes32",
                  "name": "sourceId",
                  "type": "bytes32"
                },
                {
                  "internalType": "uint64",
                  "name": "votingRound",
                  "type": "uint64"
                },
                {
                  "internalType": "uint64",
                  "name": "lowestUsedTimestamp",
                  "type": "uint64"
                },
                {
                  "components": [
                    {
                      "internalType": "string",
                      "name": "url",
                      "type": "string"
                    },
                    {
                      "internalType": "string",
                      "name": "postprocessJq",
                      "type": "string"
                    },
                    {
                      "internalType": "string",
                      "name": "abi_signature",
                      "type": "string"
                    }
                  ],
                  "internalType": "struct IJsonApi.RequestBody",
                  "name": "requestBody",
                  "type": "tuple"
                },
                {
                  "components": [
                    {
                      "internalType": "bytes",
                      "name": "abi_encoded_data",
                      "type": "bytes"
                    }
                  ],
                  "internalType": "struct IJsonApi.ResponseBody",
                  "name": "responseBody",
                  "type": "tuple"
                }
              ],
              "internalType": "struct IJsonApi.Response",
              "name": "data",
              "type": "tuple"
            }
          ],
          "internalType": "struct IJsonApi.Proof",
          "name": "macroData",
          "type": "tuple"
        }
      ],
      "name": "updateComposite",
      "outputs": [],
      "stateMutability": "nonpayable",
      "type": "function"
    }
  ],
  "bytecode": "0x60a060405234801561001057600080fd5b50604051610eae380380610eae833981810160405281019061003291906100e1565b8073ffffffffffffffffffffffffffffffffffffffff1660808173ffffffffffffffffffffffffffffffffffffffff16815250505061010e565b600080fd5b600073ffffffffffffffffffffffffffffffffffffffff82169050919050565b600061009c82610071565b9050919050565b60006100ae82610091565b9050919050565b6100be816100a3565b81146100c957600080fd5b50565b6000815190506100db816100b5565b92915050565b6000602082840312156100f7576100f661006c565b5b6000610105848285016100cc565b91505092915050565b608051610d7f61012f6000396000818160f001526102500152610d7f6000f3fe608060405234801561001057600080fd5b50600436106100415760003560e01c806306864d6d1461004657806335f7c77c14610064578063d76d296814610080575b600080fd5b61004e61009e565b60405161005b9190610331565b60405180910390f35b61007e6004803603810190610079919061037a565b6100a4565b005b61008861024e565b6040516100959190610442565b60405180910390f35b60005481565b6100ad81610272565b6100ec576040517f08c379a00000000000000000000000000000000000000000000000000000000081526004016100e3906104ba565b60405180910390fd5b60007f000000000000000000000000000000000000000000000000000000000000000073ffffffffffffffffffffffffffffffffffffffff1663c0aa31d26040518163ffffffff1660e01b8152600401602060405180830381865afa158015610159573d6000803e3d6000fd5b505050506040513d601f19601f8201168201806040525081019061017d9190610506565b905060008280602001906101919190610542565b8060a001906101a0919061056a565b80600001906101af9190610592565b8101906101bc919061060a565b905060006064601e836101cf9190610666565b6046856101dc9190610666565b6101e691906106a8565b6101f0919061070b565b9050662386f26fc10000816102059190610666565b6000819055507f14f1950e9c3326f5ee9d90da373fc3a3f263d5e4faf2fc3a3ddac03e9c314b2e83836000546040516102409392919061073c565b60405180910390a150505050565b7f000000000000000000000000000000000000000000000000000000000000000081565b600061027c6102fc565b73ffffffffffffffffffffffffffffffffffffffff1663d0f18f85836040518263ffffffff1660e01b81526004016102b49190610cc2565b602060405180830381865afa1580156102d1573d6000803e3d6000fd5b505050506040513d601f19601f820116820180604052508101906102f59190610d1c565b9050919050565b600073206d83e3a24523de1e43ab56ac8f7b9b10f6ab89905090565b6000819050919050565b61032b81610318565b82525050565b60006020820190506103466000830184610322565b92915050565b600080fd5b600080fd5b600080fd5b60006040828403121561037157610370610356565b5b81905092915050565b6000602082840312156103905761038f61034c565b5b600082013567ffffffffffffffff8111156103ae576103ad610351565b5b6103ba8482850161035b565b91505092915050565b600073ffffffffffffffffffffffffffffffffffffffff82169050919050565b6000819050919050565b60006104086104036103fe846103c3565b6103e3565b6103c3565b9050919050565b600061041a826103ed565b9050919050565b600061042c8261040f565b9050919050565b61043c81610421565b82525050565b60006020820190506104576000830184610433565b92915050565b600082825260208201905092915050565b7f496e76616c6964206d6163726f2070726f6f6600000000000000000000000000600082015250565b60006104a460138361045d565b91506104af8261046e565b602082019050919050565b600060208201905081810360008301526104d381610497565b9050919050565b6104e381610318565b81146104ee57600080fd5b50565b600081519050610500816104da565b92915050565b60006020828403121561051c5761051b61034c565b5b600061052a848285016104f1565b91505092915050565b600080fd5b600080fd5b600080fd5b60008235600160c00383360303811261055e5761055d610533565b5b80830191505092915050565b60008235600160200383360303811261058657610585610533565b5b80830191505092915050565b600080833560016020038436030381126105af576105ae610533565b5b80840192508235915067ffffffffffffffff8211156105d1576105d0610538565b5b6020830192506001820236038313156105ed576105ec61053d565b5b509250929050565b600081359050610604816104da565b92915050565b6000602082840312156106205761061f61034c565b5b600061062e848285016105f5565b91505092915050565b7f4e487b7100000000000000000000000000000000000000000000000000000000600052601160045260246000fd5b600061067182610318565b915061067c83610318565b925082820261068a81610318565b915082820484148315176106a1576106a0610637565b5b5092915050565b60006106b382610318565b91506106be83610318565b92508282019050808211156106d6576106d5610637565b5b92915050565b7f4e487b7100000000000000000000000000000000000000000000000000000000600052601260045260246000fd5b600061071682610318565b915061072183610318565b925082610731576107306106dc565b5b828204905092915050565b60006060820190506107516000830186610322565b61075e6020830185610322565b61076b6040830184610322565b949350505050565b600080fd5b600080fd5b600080fd5b6000808335600160200384360303811261079f5761079e61077d565b5b83810192508235915060208301925067ffffffffffffffff8211156107c7576107c6610773565b5b6020820236038313156107dd576107dc610778565b5b509250929050565b600082825260208201905092915050565b600080fd5b82818337505050565b600061081083856107e5565b93507f07ffffffffffffffffffffffffffffffffffffffffffffffffffffffffffffff831115610843576108426107f6565b5b6020830292506108548385846107fb565b82840190509392505050565b60008235600160c00383360303811261087c5761087b61077d565b5b82810191505092915050565b6000819050919050565b61089b81610888565b81146108a657600080fd5b50565b6000813590506108b881610892565b92915050565b60006108cd60208401846108a9565b905092915050565b6108de81610888565b82525050565b600067ffffffffffffffff82169050919050565b610901816108e4565b811461090c57600080fd5b50565b60008135905061091e816108f8565b92915050565b6000610933602084018461090f565b905092915050565b610944816108e4565b82525050565b6000823560016060038336030381126109665761096561077d565b5b82810191505092915050565b6000808335600160200384360303811261098f5761098e61077d565b5b83810192508235915060208301925067ffffffffffffffff8211156109b7576109b6610773565b5b6001820236038313156109cd576109cc610778565b5b509250929050565b600082825260208201905092915050565b82818337600083830152505050565b6000601f19601f8301169050919050565b6000610a1283856109d5565b9350610a1f8385846109e6565b610a28836109f5565b840190509392505050565b600060608301610a466000840184610972565b8583036000870152610a59838284610a06565b92505050610a6a6020840184610972565b8583036020870152610a7d838284610a06565b92505050610a8e6040840184610972565b8583036040870152610aa1838284610a06565b925050508091505092915050565b600082356001602003833603038112610acb57610aca61077d565b5b82810191505092915050565b60008083356001602003843603038112610af457610af361077d565b5b83810192508235915060208301925067ffffffffffffffff821115610b1c57610b1b610773565b5b600182023603831315610b3257610b31610778565b5b509250929050565b600082825260208201905092915050565b6000610b578385610b3a565b9350610b648385846109e6565b610b6d836109f5565b840190509392505050565b600060208301610b8b6000840184610ad7565b8583036000870152610b9e838284610b4b565b925050508091505092915050565b600060c08301610bbf60008401846108be565b610bcc60008601826108d5565b50610bda60208401846108be565b610be760208601826108d5565b50610bf56040840184610924565b610c02604086018261093b565b50610c106060840184610924565b610c1d606086018261093b565b50610c2b608084018461094a565b8482036080860152610c3d8282610a33565b915050610c4d60a0840184610aaf565b84820360a0860152610c5f8282610b78565b9150508091505092915050565b600060408301610c7f6000840184610782565b8583036000870152610c92838284610804565b92505050610ca36020840184610860565b8482036020860152610cb58282610bac565b9150508091505092915050565b60006020820190508181036000830152610cdc8184610c6c565b905092915050565b60008115159050919050565b610cf981610ce4565b8114610d0457600080fd5b50565b600081519050610d1681610cf0565b92915050565b600060208284031215610d3257610d3161034c565b5b6000610d4084828501610d07565b9150509291505056fea2646970667358221220ce3ef2ac7e08910f52750f04b6f520a4c35726777697b0c7c8fd0bc676e536a564736f6c634300081c0033",
  "linkReferences": {},
  "deployedLinkReferences": {}
}