{
  "_format": "hh-sol-artifact-1",
  "contractName": "MockTwitterFTSO",
  "sourceName": "contracts/MockFTSO.sol",
  "abi": [
    {
      "inputs": [
        {
          "internalType": "address",
          "name": "_keeper",
          "type": "address"
        }
      ],
      "stateMutability": "nonpayable",
      "type": "constructor"
    },
    {
      "inputs": [],
      "name": "keeper",
      "outputs": [
        {
          "internalType": "address",
          "name": "",
          "type": "address"
        }
      ],
      "stateMutability": "view",
      "type": "function"
    },
    {
      "inputs": [
        {
          "internalType": "uint256",
          "name": "s",
          "type": "uint256"
        }
      ],
      "name": "setTweetScore",
      "outputs": [],
      "stateMutability": "nonpayable",
      "type": "function"
    },
    {
      "inputs": [],
      "name": "tweetScore",
      "outputs": [
        {
          "internalType": "uint256",
          "name": "",
          "type": "uint256"
        }
      ],
      "stateMutability": "view",
      "type": "function"
    }
  ],
  "bytecode": "0x608060405234801561001057600080fd5b506040516104d03803806104d0833981810160405281019061003291906100dc565b80600160006101000a81548173ffffffffffffffffffffffffffffffffffffffff021916908373ffffffffffffffffffffffffffffffffffffffff16021790555050610109565b600080fd5b600073ffffffffffffffffffffffffffffffffffffffff82169050919050565b60006100a98261007e565b9050919050565b6100b98161009e565b81146100c457600080fd5b50565b6000815190506100d6816100b0565b92915050565b6000602082840312156100f2576100f1610079565b5b6000610100848285016100c7565b91505092915050565b6103b8806101186000396000f3fe608060405234801561001057600080fd5b50600436106100415760003560e01c806334141a9114610046578063aced166114610062578063c0aa31d214610080575b600080fd5b610060600480360381019061005b91906101e6565b61009e565b005b61006a61017c565b6040516100779190610254565b60405180910390f35b6100886101a2565b604051610095919061027e565b60405180910390f35b600160009054906101000a900473ffffffffffffffffffffffffffffffffffffffff1673ffffffffffffffffffffffffffffffffffffffff163373ffffffffffffffffffffffffffffffffffffffff161461012e576040517f08c379a0000000000000000000000000000000000000000000000000000000008152600401610125906102f6565b60405180910390fd5b6064811115610172576040517f08c379a000000000000000000000000000000000000000000000000000000000815260040161016990610362565b60405180910390fd5b8060008190555050565b600160009054906101000a900473ffffffffffffffffffffffffffffffffffffffff1681565b60008054905090565b600080fd5b6000819050919050565b6101c3816101b0565b81146101ce57600080fd5b50565b6000813590506101e0816101ba565b92915050565b6000602082840312156101fc576101fb6101ab565b5b600061020a848285016101d1565b91505092915050565b600073ffffffffffffffffffffffffffffffffffffffff82169050919050565b600061023e82610213565b9050919050565b61024e81610233565b82525050565b60006020820190506102696000830184610245565b92915050565b610278816101b0565b82525050565b6000602082019050610293600083018461026f565b92915050565b600082825260208201905092915050565b7f4d6f636b547769747465724654534f3a206e6f74206b65657065720000000000600082015250565b60006102e0601b83610299565b91506102eb826102aa565b602082019050919050565b6000602082019050818103600083015261030f816102d3565b9050919050565b7f6f7574206f662072616e67650000000000000000000000000000000000000000600082015250565b600061034c600c83610299565b915061035782610316565b602082019050919050565b6000602082019050818103600083015261037b8161033f565b905091905056fea2646970667358221220dee4be272151457dc5e35b1d8bc2f340addf03c01b726056202057e6f6bf110e64736f6c634300081c0033",
  "linkReferences": {},
  "deployedLinkReferences": {}
}